{
  "contractName": "WhaleNetwork",
  "abi": [
    {
      "inputs": [],
      "stateMutability": "nonpayable",
      "type": "constructor"
    },
    {
      "anonymous": false,
      "inputs": [
        {
          "indexed": true,
          "internalType": "address",
          "name": "owner",
          "type": "address"
        },
        {
          "indexed": true,
          "internalType": "address",
          "name": "spender",
          "type": "address"
        },
        {
          "indexed": false,
          "internalType": "uint256",
          "name": "value",
          "type": "uint256"
        }
      ],
      "name": "Approval",
      "type": "event"
    },
    {
      "anonymous": false,
      "inputs": [
        {
          "indexed": true,
          "internalType": "address",
          "name": "previousOwner",
          "type": "address"
        },
        {
          "indexed": true,
          "internalType": "address",
          "name": "newOwner",
          "type": "address"
        }
      ],
      "name": "OwnershipTransferred",
      "type": "event"
    },
    {
      "anonymous": false,
      "inputs": [
        {
          "indexed": true,
          "internalType": "address",
          "name": "from",
          "type": "address"
        },
        {
          "indexed": true,
          "internalType": "address",
          "name": "to",
          "type": "address"
        },
        {
          "indexed": false,
          "internalType": "uint256",
          "name": "value",
          "type": "uint256"
        }
      ],
      "name": "Transfer",
      "type": "event"
    },
    {
      "inputs": [],
      "name": "_burnFee",
      "outputs": [
        {
          "internalType": "uint256",
          "name": "",
          "type": "uint256"
        }
      ],
      "stateMutability": "view",
      "type": "function",
      "constant": true
    },
    {
      "inputs": [],
      "name": "_maxTxAmount",
      "outputs": [
        {
          "internalType": "uint256",
          "name": "",
          "type": "uint256"
        }
      ],
      "stateMutability": "view",
      "type": "function",
      "constant": true
    },
    {
      "inputs": [],
      "name": "_serviceFee",
      "outputs": [
        {
          "internalType": "uint256",
          "name": "",
          "type": "uint256"
        }
      ],
      "stateMutability": "view",
      "type": "function",
      "constant": true
    },
    {
      "inputs": [],
      "name": "_taxFee",
      "outputs": [
        {
          "internalType": "uint256",
          "name": "",
          "type": "uint256"
        }
      ],
      "stateMutability": "view",
      "type": "function",
      "constant": true
    },
    {
      "inputs": [],
      "name": "geUnlockTime",
      "outputs": [
        {
          "internalType": "uint256",
          "name": "",
          "type": "uint256"
        }
      ],
      "stateMutability": "view",
      "type": "function",
      "constant": true
    },
    {
      "inputs": [
        {
          "internalType": "uint256",
          "name": "time",
          "type": "uint256"
        }
      ],
      "name": "lock",
      "outputs": [],
      "stateMutability": "nonpayable",
      "type": "function"
    },
    {
      "inputs": [],
      "name": "owner",
      "outputs": [
        {
          "internalType": "address",
          "name": "",
          "type": "address"
        }
      ],
      "stateMutability": "view",
      "type": "function",
      "constant": true
    },
    {
      "inputs": [],
      "name": "renounceOwnership",
      "outputs": [],
      "stateMutability": "nonpayable",
      "type": "function"
    },
    {
      "inputs": [
        {
          "internalType": "address",
          "name": "newOwner",
          "type": "address"
        }
      ],
      "name": "transferOwnership",
      "outputs": [],
      "stateMutability": "nonpayable",
      "type": "function"
    },
    {
      "inputs": [],
      "name": "unlock",
      "outputs": [],
      "stateMutability": "nonpayable",
      "type": "function"
    },
    {
      "inputs": [
        {
          "internalType": "uint256",
          "name": "partnerId",
          "type": "uint256"
        },
        {
          "internalType": "address",
          "name": "contractAddress",
          "type": "address"
        }
      ],
      "name": "addPartnership",
      "outputs": [
        {
          "internalType": "uint256",
          "name": "",
          "type": "uint256"
        },
        {
          "internalType": "address",
          "name": "",
          "type": "address"
        }
      ],
      "stateMutability": "nonpayable",
      "type": "function"
    },
    {
      "inputs": [],
      "name": "decimals",
      "outputs": [
        {
          "internalType": "uint8",
          "name": "",
          "type": "uint8"
        }
      ],
      "stateMutability": "view",
      "type": "function",
      "constant": true
    },
    {
      "inputs": [],
      "name": "name",
      "outputs": [
        {
          "internalType": "string",
          "name": "",
          "type": "string"
        }
      ],
      "stateMutability": "view",
      "type": "function",
      "constant": true
    },
    {
      "inputs": [],
      "name": "symbol",
      "outputs": [
        {
          "internalType": "string",
          "name": "",
          "type": "string"
        }
      ],
      "stateMutability": "view",
      "type": "function",
      "constant": true
    },
    {
      "inputs": [],
      "name": "totalSupply",
      "outputs": [
        {
          "internalType": "uint256",
          "name": "",
          "type": "uint256"
        }
      ],
      "stateMutability": "view",
      "type": "function",
      "constant": true
    },
    {
      "inputs": [],
      "name": "serviceFeeCollector",
      "outputs": [
        {
          "internalType": "address",
          "name": "",
          "type": "address"
        }
      ],
      "stateMutability": "view",
      "type": "function",
      "constant": true
    },
    {
      "inputs": [
        {
          "internalType": "address",
          "name": "collector",
          "type": "address"
        }
      ],
      "name": "setServiceFeeCollector",
      "outputs": [
        {
          "internalType": "bool",
          "name": "",
          "type": "bool"
        }
      ],
      "stateMutability": "nonpayable",
      "type": "function"
    },
    {
      "inputs": [
        {
          "internalType": "uint256",
          "name": "maxTxAmount",
          "type": "uint256"
        }
      ],
      "name": "setMaxTxAmount",
      "outputs": [
        {
          "internalType": "bool",
          "name": "",
          "type": "bool"
        }
      ],
      "stateMutability": "nonpayable",
      "type": "function"
    },
    {
      "inputs": [
        {
          "internalType": "uint256",
          "name": "taxFee",
          "type": "uint256"
        }
      ],
      "name": "setTaxFee",
      "outputs": [
        {
          "internalType": "bool",
          "name": "",
          "type": "bool"
        }
      ],
      "stateMutability": "nonpayable",
      "type": "function"
    },
    {
      "inputs": [
        {
          "internalType": "uint256",
          "name": "serviceFee",
          "type": "uint256"
        }
      ],
      "name": "setServiceFee",
      "outputs": [
        {
          "internalType": "bool",
          "name": "",
          "type": "bool"
        }
      ],
      "stateMutability": "nonpayable",
      "type": "function"
    },
    {
      "inputs": [
        {
          "internalType": "uint256",
          "name": "burnFee",
          "type": "uint256"
        }
      ],
      "name": "setBurnFee",
      "outputs": [
        {
          "internalType": "bool",
          "name": "",
          "type": "bool"
        }
      ],
      "stateMutability": "nonpayable",
      "type": "function"
    },
    {
      "inputs": [
        {
          "internalType": "address",
          "name": "account",
          "type": "address"
        }
      ],
      "name": "balanceOf",
      "outputs": [
        {
          "internalType": "uint256",
          "name": "",
          "type": "uint256"
        }
      ],
      "stateMutability": "view",
      "type": "function",
      "constant": true
    },
    {
      "inputs": [
        {
          "internalType": "address",
          "name": "recipient",
          "type": "address"
        },
        {
          "internalType": "uint256",
          "name": "amount",
          "type": "uint256"
        }
      ],
      "name": "transfer",
      "outputs": [
        {
          "internalType": "bool",
          "name": "",
          "type": "bool"
        }
      ],
      "stateMutability": "nonpayable",
      "type": "function"
    },
    {
      "inputs": [
        {
          "internalType": "address",
          "name": "recipient",
          "type": "address"
        },
        {
          "internalType": "uint256",
          "name": "amount",
          "type": "uint256"
        }
      ],
      "name": "payment",
      "outputs": [
        {
          "internalType": "bool",
          "name": "",
          "type": "bool"
        }
      ],
      "stateMutability": "nonpayable",
      "type": "function"
    },
    {
      "inputs": [
        {
          "internalType": "address",
          "name": "recipient",
          "type": "address"
        },
        {
          "internalType": "uint256",
          "name": "amount",
          "type": "uint256"
        },
        {
          "internalType": "uint256",
          "name": "taxFee",
          "type": "uint256"
        },
        {
          "internalType": "uint256",
          "name": "burnFee",
          "type": "uint256"
        },
        {
          "internalType": "uint256",
          "name": "serviceFee",
          "type": "uint256"
        }
      ],
      "name": "customPayment",
      "outputs": [
        {
          "internalType": "bool",
          "name": "",
          "type": "bool"
        }
      ],
      "stateMutability": "nonpayable",
      "type": "function"
    },
    {
      "inputs": [
        {
          "internalType": "address",
          "name": "recipient",
          "type": "address"
        },
        {
          "internalType": "uint256",
          "name": "amount",
          "type": "uint256"
        },
        {
          "internalType": "uint256",
          "name": "partnerId",
          "type": "uint256"
        }
      ],
      "name": "partnerPayment",
      "outputs": [
        {
          "internalType": "bool",
          "name": "",
          "type": "bool"
        }
      ],
      "stateMutability": "nonpayable",
      "type": "function"
    },
    {
      "inputs": [
        {
          "internalType": "address",
          "name": "owner",
          "type": "address"
        },
        {
          "internalType": "address",
          "name": "spender",
          "type": "address"
        }
      ],
      "name": "allowance",
      "outputs": [
        {
          "internalType": "uint256",
          "name": "",
          "type": "uint256"
        }
      ],
      "stateMutability": "view",
      "type": "function",
      "constant": true
    },
    {
      "inputs": [
        {
          "internalType": "address",
          "name": "spender",
          "type": "address"
        },
        {
          "internalType": "uint256",
          "name": "amount",
          "type": "uint256"
        }
      ],
      "name": "approve",
      "outputs": [
        {
          "internalType": "bool",
          "name": "",
          "type": "bool"
        }
      ],
      "stateMutability": "nonpayable",
      "type": "function"
    },
    {
      "inputs": [
        {
          "internalType": "address",
          "name": "sender",
          "type": "address"
        },
        {
          "internalType": "address",
          "name": "recipient",
          "type": "address"
        },
        {
          "internalType": "uint256",
          "name": "amount",
          "type": "uint256"
        }
      ],
      "name": "transferFrom",
      "outputs": [
        {
          "internalType": "bool",
          "name": "",
          "type": "bool"
        }
      ],
      "stateMutability": "nonpayable",
      "type": "function"
    },
    {
      "inputs": [
        {
          "internalType": "address",
          "name": "spender",
          "type": "address"
        },
        {
          "internalType": "uint256",
          "name": "addedValue",
          "type": "uint256"
        }
      ],
      "name": "increaseAllowance",
      "outputs": [
        {
          "internalType": "bool",
          "name": "",
          "type": "bool"
        }
      ],
      "stateMutability": "nonpayable",
      "type": "function"
    },
    {
      "inputs": [
        {
          "internalType": "address",
          "name": "spender",
          "type": "address"
        },
        {
          "internalType": "uint256",
          "name": "subtractedValue",
          "type": "uint256"
        }
      ],
      "name": "decreaseAllowance",
      "outputs": [
        {
          "internalType": "bool",
          "name": "",
          "type": "bool"
        }
      ],
      "stateMutability": "nonpayable",
      "type": "function"
    },
    {
      "inputs": [],
      "name": "totalFees",
      "outputs": [
        {
          "internalType": "uint256",
          "name": "",
          "type": "uint256"
        }
      ],
      "stateMutability": "view",
      "type": "function",
      "constant": true
    },
    {
      "inputs": [
        {
          "internalType": "uint256",
          "name": "rAmount",
          "type": "uint256"
        }
      ],
      "name": "tokenFromReflection",
      "outputs": [
        {
          "internalType": "uint256",
          "name": "",
          "type": "uint256"
        }
      ],
      "stateMutability": "view",
      "type": "function",
      "constant": true
    }
  ],
  "bytecode": "0x60806040526a084595161401484a000000600c556005600d556005600e55600a600f55600e54601055600d54601155600f546012556000601655600160175560026018553480156200005057600080fd5b50600062000063620002c660201b60201c565b9050806000806101000a81548173ffffffffffffffffffffffffffffffffffffffff021916908373ffffffffffffffffffffffffffffffffffffffff1602179055508073ffffffffffffffffffffffffffffffffffffffff16600073ffffffffffffffffffffffffffffffffffffffff167f8be0079c531659141344cd1fd0a4f28419497f9722a3daafe3b4186f6b6457e060405160405180910390a3506040518060400160405280600e81526020017f5768616c6573204e6574776f726b000000000000000000000000000000000000815250600990805190602001906200014e929190620002ce565b506040518060400160405280600681526020017f5748414c45530000000000000000000000000000000000000000000000000000815250600a90805190602001906200019c929190620002ce565b506a115eec47f6cf7e35000000601481905550601454600019620001c1919062000427565b600019620001d09190620003ac565b6015819055506012600b60006101000a81548160ff021916908360ff1602179055506015546004600062000209620002c660201b60201c565b73ffffffffffffffffffffffffffffffffffffffff1673ffffffffffffffffffffffffffffffffffffffff1681526020019081526020016000208190555062000257620002c660201b60201c565b73ffffffffffffffffffffffffffffffffffffffff16600073ffffffffffffffffffffffffffffffffffffffff167fddf252ad1be2c89b69c2b068fc378daa952ba7f163c4a11628f55a4df523b3ef601454604051620002b891906200038f565b60405180910390a3620004ec565b600033905090565b828054620002dc90620003f1565b90600052602060002090601f0160209004810192826200030057600085556200034c565b82601f106200031b57805160ff19168380011785556200034c565b828001600101855582156200034c579182015b828111156200034b5782518255916020019190600101906200032e565b5b5090506200035b91906200035f565b5090565b5b808211156200037a57600081600090555060010162000360565b5090565b6200038981620003e7565b82525050565b6000602082019050620003a660008301846200037e565b92915050565b6000620003b982620003e7565b9150620003c683620003e7565b925082821015620003dc57620003db6200045f565b5b828203905092915050565b6000819050919050565b600060028204905060018216806200040a57607f821691505b60208210811415620004215762000420620004bd565b5b50919050565b60006200043482620003e7565b91506200044183620003e7565b9250826200045457620004536200048e565b5b828206905092915050565b7f4e487b7100000000000000000000000000000000000000000000000000000000600052601160045260246000fd5b7f4e487b7100000000000000000000000000000000000000000000000000000000600052601260045260246000fd5b7f4e487b7100000000000000000000000000000000000000000000000000000000600052602260045260246000fd5b6143b180620004fc6000396000f3fe608060405234801561001057600080fd5b50600436106101fb5760003560e01c80638da5cb5b1161011a578063b6c52324116100ad578063dd62ed3e1161007c578063dd62ed3e1461061b578063ec06f8041461064b578063ec28438a1461067b578063f1746e08146106ab578063f2fde38b146106c9576101fb565b8063b6c5232414610593578063c0b0fda2146105b1578063c4081a4c146105cf578063dd467064146105ff576101fb565b8063a69df4b5116100e9578063a69df4b5146104f9578063a6cb653614610503578063a9059cbb14610533578063b566eda114610563576101fb565b80638da5cb5b1461045c57806392ad16051461047a57806395d89b41146104ab578063a457c2d7146104c9576101fb565b8063395093511161019257806367a09c231161016157806367a09c23146103d457806370a0823114610404578063715018a6146104345780637d1db4a51461043e576101fb565b806339509351146103265780633b124fe7146103565780634bf2c7c9146103745780635cdf76f8146103a4576101fb565b8063184cac22116101ce578063184cac221461028a57806323b872dd146102a85780632d838119146102d8578063313ce56714610308576101fb565b806306fdde0314610200578063095ea7b31461021e57806313114a9d1461024e57806318160ddd1461026c575b600080fd5b6102086106e5565b6040516102159190613e16565b60405180910390f35b6102386004803603810190610233919061362d565b610777565b6040516102459190613dfb565b60405180910390f35b610256610795565b6040516102639190614018565b60405180910390f35b61027461079f565b6040516102819190614018565b60405180910390f35b6102926107a9565b60405161029f9190614018565b60405180910390f35b6102c260048036038101906102bd91906135de565b6107af565b6040516102cf9190613dfb565b60405180910390f35b6102f260048036038101906102ed919061372f565b61088a565b6040516102ff9190614018565b60405180910390f35b6103106108f8565b60405161031d919061405c565b60405180910390f35b610340600480360381019061033b919061362d565b61090f565b60405161034d9190613dfb565b60405180910390f35b61035e6109c2565b60405161036b9190614018565b60405180910390f35b61038e6004803603810190610389919061372f565b6109c8565b60405161039b9190613dfb565b60405180910390f35b6103be60048036038101906103b9919061372f565b610a6f565b6040516103cb9190613dfb565b60405180910390f35b6103ee60048036038101906103e9919061362d565b610b16565b6040516103fb9190613dfb565b60405180910390f35b61041e60048036038101906104199190613579565b610b36565b60405161042b9190614018565b60405180910390f35b61043c610b87565b005b610446610cda565b6040516104539190614018565b60405180910390f35b610464610ce0565b6040516104719190613de0565b60405180910390f35b610494600480360381019061048f9190613781565b610d09565b6040516104a2929190614033565b60405180910390f35b6104b3610ea2565b6040516104c09190613e16565b60405180910390f35b6104e360048036038101906104de919061362d565b610f34565b6040516104f09190613dfb565b60405180910390f35b610501611001565b005b61051d60048036038101906105189190613579565b6111d5565b60405161052a9190613dfb565b60405180910390f35b61054d6004803603810190610548919061362d565b6112b6565b60405161055a9190613dfb565b60405180910390f35b61057d600480360381019061057891906136b8565b6112d6565b60405161058a9190613dfb565b60405180910390f35b61059b611335565b6040516105a89190614018565b60405180910390f35b6105b961133f565b6040516105c69190614018565b60405180910390f35b6105e960048036038101906105e4919061372f565b611345565b6040516105f69190613dfb565b60405180910390f35b6106196004803603810190610614919061372f565b6113ec565b005b610635600480360381019061063091906135a2565b6115b3565b6040516106429190614018565b60405180910390f35b61066560048036038101906106609190613669565b61163a565b6040516106729190613dfb565b60405180910390f35b6106956004803603810190610690919061372f565b6118fa565b6040516106a29190613dfb565b60405180910390f35b6106b36119a1565b6040516106c09190613de0565b60405180910390f35b6106e360048036038101906106de9190613579565b6119cb565b005b6060600980546106f490614230565b80601f016020809104026020016040519081016040528092919081815260200182805461072090614230565b801561076d5780601f106107425761010080835404028352916020019161076d565b820191906000526020600020905b81548152906001019060200180831161075057829003601f168201915b5050505050905090565b600061078b610784611b8d565b8484611b95565b6001905092915050565b6000601354905090565b6000601454905090565b600f5481565b60006107be8484846000611d60565b61087f846107ca611b8d565b61087a8560405180606001604052806028815260200161432f60289139600660008b73ffffffffffffffffffffffffffffffffffffffff1673ffffffffffffffffffffffffffffffffffffffff1681526020019081526020016000206000610830611b8d565b73ffffffffffffffffffffffffffffffffffffffff1673ffffffffffffffffffffffffffffffffffffffff16815260200190815260200160002054611f569092919063ffffffff16565b611b95565b600190509392505050565b60006015548211156108d1576040517f08c379a00000000000000000000000000000000000000000000000000000000081526004016108c890613e58565b60405180910390fd5b60006108db611fba565b90506108f08184611fe590919063ffffffff16565b915050919050565b6000600b60009054906101000a900460ff16905090565b60006109b861091c611b8d565b846109b3856006600061092d611b8d565b73ffffffffffffffffffffffffffffffffffffffff1673ffffffffffffffffffffffffffffffffffffffff16815260200190815260200160002060008973ffffffffffffffffffffffffffffffffffffffff1673ffffffffffffffffffffffffffffffffffffffff1681526020019081526020016000205461202f90919063ffffffff16565b611b95565b6001905092915050565b600d5481565b60006109d2611b8d565b73ffffffffffffffffffffffffffffffffffffffff1660008054906101000a900473ffffffffffffffffffffffffffffffffffffffff1673ffffffffffffffffffffffffffffffffffffffff1614610a5f576040517f08c379a0000000000000000000000000000000000000000000000000000000008152600401610a5690613f38565b60405180910390fd5b81600e8190555060019050919050565b6000610a79611b8d565b73ffffffffffffffffffffffffffffffffffffffff1660008054906101000a900473ffffffffffffffffffffffffffffffffffffffff1673ffffffffffffffffffffffffffffffffffffffff1614610b06576040517f08c379a0000000000000000000000000000000000000000000000000000000008152600401610afd90613f38565b60405180910390fd5b81600f8190555060019050919050565b6000610b2c610b23611b8d565b84846001611d60565b6001905092915050565b6000610b80600460008473ffffffffffffffffffffffffffffffffffffffff1673ffffffffffffffffffffffffffffffffffffffff1681526020019081526020016000205461088a565b9050919050565b610b8f611b8d565b73ffffffffffffffffffffffffffffffffffffffff1660008054906101000a900473ffffffffffffffffffffffffffffffffffffffff1673ffffffffffffffffffffffffffffffffffffffff1614610c1c576040517f08c379a0000000000000000000000000000000000000000000000000000000008152600401610c1390613f38565b60405180910390fd5b600073ffffffffffffffffffffffffffffffffffffffff1660008054906101000a900473ffffffffffffffffffffffffffffffffffffffff1673ffffffffffffffffffffffffffffffffffffffff167f8be0079c531659141344cd1fd0a4f28419497f9722a3daafe3b4186f6b6457e060405160405180910390a360008060006101000a81548173ffffffffffffffffffffffffffffffffffffffff021916908373ffffffffffffffffffffffffffffffffffffffff160217905550565b600c5481565b60008060009054906101000a900473ffffffffffffffffffffffffffffffffffffffff16905090565b600080610d14611b8d565b73ffffffffffffffffffffffffffffffffffffffff1660008054906101000a900473ffffffffffffffffffffffffffffffffffffffff1673ffffffffffffffffffffffffffffffffffffffff1614610da1576040517f08c379a0000000000000000000000000000000000000000000000000000000008152600401610d9890613f38565b60405180910390fd5b600073ffffffffffffffffffffffffffffffffffffffff166007600086815260200190815260200160002060009054906101000a900473ffffffffffffffffffffffffffffffffffffffff1673ffffffffffffffffffffffffffffffffffffffff1614610e43576040517f08c379a0000000000000000000000000000000000000000000000000000000008152600401610e3a90613f18565b60405180910390fd5b826007600086815260200190815260200160002060006101000a81548173ffffffffffffffffffffffffffffffffffffffff021916908373ffffffffffffffffffffffffffffffffffffffff1602179055508383915091509250929050565b6060600a8054610eb190614230565b80601f0160208091040260200160405190810160405280929190818152602001828054610edd90614230565b8015610f2a5780601f10610eff57610100808354040283529160200191610f2a565b820191906000526020600020905b815481529060010190602001808311610f0d57829003601f168201915b5050505050905090565b6000610ff7610f41611b8d565b84610ff2856040518060600160405280602581526020016143576025913960066000610f6b611b8d565b73ffffffffffffffffffffffffffffffffffffffff1673ffffffffffffffffffffffffffffffffffffffff16815260200190815260200160002060008a73ffffffffffffffffffffffffffffffffffffffff1673ffffffffffffffffffffffffffffffffffffffff16815260200190815260200160002054611f569092919063ffffffff16565b611b95565b6001905092915050565b3373ffffffffffffffffffffffffffffffffffffffff16600160009054906101000a900473ffffffffffffffffffffffffffffffffffffffff1673ffffffffffffffffffffffffffffffffffffffff1614611091576040517f08c379a000000000000000000000000000000000000000000000000000000000815260040161108890613ff8565b60405180910390fd5b60025442116110d5576040517f08c379a00000000000000000000000000000000000000000000000000000000081526004016110cc90613fd8565b60405180910390fd5b600160009054906101000a900473ffffffffffffffffffffffffffffffffffffffff1673ffffffffffffffffffffffffffffffffffffffff1660008054906101000a900473ffffffffffffffffffffffffffffffffffffffff1673ffffffffffffffffffffffffffffffffffffffff167f8be0079c531659141344cd1fd0a4f28419497f9722a3daafe3b4186f6b6457e060405160405180910390a3600160009054906101000a900473ffffffffffffffffffffffffffffffffffffffff166000806101000a81548173ffffffffffffffffffffffffffffffffffffffff021916908373ffffffffffffffffffffffffffffffffffffffff160217905550565b60006111df611b8d565b73ffffffffffffffffffffffffffffffffffffffff1660008054906101000a900473ffffffffffffffffffffffffffffffffffffffff1673ffffffffffffffffffffffffffffffffffffffff161461126c576040517f08c379a000000000000000000000000000000000000000000000000000000000815260040161126390613f38565b60405180910390fd5b81600860006101000a81548173ffffffffffffffffffffffffffffffffffffffff021916908373ffffffffffffffffffffffffffffffffffffffff16021790555060019050919050565b60006112cc6112c3611b8d565b84846000611d60565b6001905092915050565b60006113286112e3611b8d565b8787604051806060016040528089815260200188815260200187815250600860009054906101000a900473ffffffffffffffffffffffffffffffffffffffff1661208d565b6001905095945050505050565b6000600254905090565b600e5481565b600061134f611b8d565b73ffffffffffffffffffffffffffffffffffffffff1660008054906101000a900473ffffffffffffffffffffffffffffffffffffffff1673ffffffffffffffffffffffffffffffffffffffff16146113dc576040517f08c379a00000000000000000000000000000000000000000000000000000000081526004016113d390613f38565b60405180910390fd5b81600d8190555060019050919050565b6113f4611b8d565b73ffffffffffffffffffffffffffffffffffffffff1660008054906101000a900473ffffffffffffffffffffffffffffffffffffffff1673ffffffffffffffffffffffffffffffffffffffff1614611481576040517f08c379a000000000000000000000000000000000000000000000000000000000815260040161147890613f38565b60405180910390fd5b60008054906101000a900473ffffffffffffffffffffffffffffffffffffffff16600160006101000a81548173ffffffffffffffffffffffffffffffffffffffff021916908373ffffffffffffffffffffffffffffffffffffffff16021790555060008060006101000a81548173ffffffffffffffffffffffffffffffffffffffff021916908373ffffffffffffffffffffffffffffffffffffffff160217905550804261152f9190614093565b600281905550600073ffffffffffffffffffffffffffffffffffffffff1660008054906101000a900473ffffffffffffffffffffffffffffffffffffffff1673ffffffffffffffffffffffffffffffffffffffff167f8be0079c531659141344cd1fd0a4f28419497f9722a3daafe3b4186f6b6457e060405160405180910390a350565b6000600660008473ffffffffffffffffffffffffffffffffffffffff1673ffffffffffffffffffffffffffffffffffffffff16815260200190815260200160002060008373ffffffffffffffffffffffffffffffffffffffff1673ffffffffffffffffffffffffffffffffffffffff16815260200190815260200160002054905092915050565b60008073ffffffffffffffffffffffffffffffffffffffff166007600084815260200190815260200160002060009054906101000a900473ffffffffffffffffffffffffffffffffffffffff1673ffffffffffffffffffffffffffffffffffffffff1614156116de576040517f08c379a00000000000000000000000000000000000000000000000000000000081526004016116d590613f78565b60405180910390fd5b60006007600084815260200190815260200160002060009054906101000a900473ffffffffffffffffffffffffffffffffffffffff1690506118ee611721611b8d565b868660405180606001604052808673ffffffffffffffffffffffffffffffffffffffff1663a071dcf46040518163ffffffff1660e01b815260040160206040518083038186803b15801561177457600080fd5b505afa158015611788573d6000803e3d6000fd5b505050506040513d601f19601f820116820180604052508101906117ac9190613758565b81526020018673ffffffffffffffffffffffffffffffffffffffff1663fce589d86040518163ffffffff1660e01b815260040160206040518083038186803b1580156117f757600080fd5b505afa15801561180b573d6000803e3d6000fd5b505050506040513d601f19601f8201168201806040525081019061182f9190613758565b81526020018673ffffffffffffffffffffffffffffffffffffffff16638abdf5aa6040518163ffffffff1660e01b815260040160206040518083038186803b15801561187a57600080fd5b505afa15801561188e573d6000803e3d6000fd5b505050506040513d601f19601f820116820180604052508101906118b29190613758565b8152506007600089815260200190815260200160002060009054906101000a900473ffffffffffffffffffffffffffffffffffffffff1661208d565b60019150509392505050565b6000611904611b8d565b73ffffffffffffffffffffffffffffffffffffffff1660008054906101000a900473ffffffffffffffffffffffffffffffffffffffff1673ffffffffffffffffffffffffffffffffffffffff1614611991576040517f08c379a000000000000000000000000000000000000000000000000000000000815260040161198890613f38565b60405180910390fd5b81600c8190555060019050919050565b6000600860009054906101000a900473ffffffffffffffffffffffffffffffffffffffff16905090565b6119d3611b8d565b73ffffffffffffffffffffffffffffffffffffffff1660008054906101000a900473ffffffffffffffffffffffffffffffffffffffff1673ffffffffffffffffffffffffffffffffffffffff1614611a60576040517f08c379a0000000000000000000000000000000000000000000000000000000008152600401611a5790613f38565b60405180910390fd5b600073ffffffffffffffffffffffffffffffffffffffff168173ffffffffffffffffffffffffffffffffffffffff161415611ad0576040517f08c379a0000000000000000000000000000000000000000000000000000000008152600401611ac790613e78565b60405180910390fd5b8073ffffffffffffffffffffffffffffffffffffffff1660008054906101000a900473ffffffffffffffffffffffffffffffffffffffff1673ffffffffffffffffffffffffffffffffffffffff167f8be0079c531659141344cd1fd0a4f28419497f9722a3daafe3b4186f6b6457e060405160405180910390a3806000806101000a81548173ffffffffffffffffffffffffffffffffffffffff021916908373ffffffffffffffffffffffffffffffffffffffff16021790555050565b600033905090565b600073ffffffffffffffffffffffffffffffffffffffff168373ffffffffffffffffffffffffffffffffffffffff161415611c05576040517f08c379a0000000000000000000000000000000000000000000000000000000008152600401611bfc90613fb8565b60405180910390fd5b600073ffffffffffffffffffffffffffffffffffffffff168273ffffffffffffffffffffffffffffffffffffffff161415611c75576040517f08c379a0000000000000000000000000000000000000000000000000000000008152600401611c6c90613e98565b60405180910390fd5b80600660008573ffffffffffffffffffffffffffffffffffffffff1673ffffffffffffffffffffffffffffffffffffffff16815260200190815260200160002060008473ffffffffffffffffffffffffffffffffffffffff1673ffffffffffffffffffffffffffffffffffffffff168152602001908152602001600020819055508173ffffffffffffffffffffffffffffffffffffffff168373ffffffffffffffffffffffffffffffffffffffff167f8c5be1e5ebec7d5bd14f71427d1e84f3dd0314c0f7b2291e5b200ac8c7c3b92583604051611d539190614018565b60405180910390a3505050565b600073ffffffffffffffffffffffffffffffffffffffff168473ffffffffffffffffffffffffffffffffffffffff161415611dd0576040517f08c379a0000000000000000000000000000000000000000000000000000000008152600401611dc790613f98565b60405180910390fd5b600073ffffffffffffffffffffffffffffffffffffffff168373ffffffffffffffffffffffffffffffffffffffff161415611e40576040517f08c379a0000000000000000000000000000000000000000000000000000000008152600401611e3790613e38565b60405180910390fd5b60008211611e83576040517f08c379a0000000000000000000000000000000000000000000000000000000008152600401611e7a90613f58565b60405180910390fd5b611e8b610ce0565b73ffffffffffffffffffffffffffffffffffffffff168473ffffffffffffffffffffffffffffffffffffffff1614158015611ef95750611ec9610ce0565b73ffffffffffffffffffffffffffffffffffffffff168373ffffffffffffffffffffffffffffffffffffffff1614155b15611f4457600c54821115611f43576040517f08c379a0000000000000000000000000000000000000000000000000000000008152600401611f3a90613ed8565b60405180910390fd5b5b611f5084848484612446565b50505050565b6000838311158290611f9e576040517f08c379a0000000000000000000000000000000000000000000000000000000008152600401611f959190613e16565b60405180910390fd5b5060008385611fad9190614174565b9050809150509392505050565b6000806000611fc7612474565b91509150611fde8183611fe590919063ffffffff16565b9250505090565b600061202783836040518060400160405280601a81526020017f536166654d6174683a206469766973696f6e206279207a65726f0000000000008152506124c1565b905092915050565b600080828461203e9190614093565b905083811015612083576040517f08c379a000000000000000000000000000000000000000000000000000000000815260040161207a90613eb8565b60405180910390fd5b8091505092915050565b600073ffffffffffffffffffffffffffffffffffffffff168573ffffffffffffffffffffffffffffffffffffffff1614156120fd576040517f08c379a00000000000000000000000000000000000000000000000000000000081526004016120f490613f98565b60405180910390fd5b600073ffffffffffffffffffffffffffffffffffffffff168473ffffffffffffffffffffffffffffffffffffffff16141561216d576040517f08c379a000000000000000000000000000000000000000000000000000000000815260040161216490613e38565b60405180910390fd5b600083116121b0576040517f08c379a00000000000000000000000000000000000000000000000000000000081526004016121a790613f58565b60405180910390fd5b6121b8610ce0565b73ffffffffffffffffffffffffffffffffffffffff168573ffffffffffffffffffffffffffffffffffffffff161415801561222657506121f6610ce0565b73ffffffffffffffffffffffffffffffffffffffff168473ffffffffffffffffffffffffffffffffffffffff1614155b1561227157600c54831115612270576040517f08c379a000000000000000000000000000000000000000000000000000000000815260040161226790613ed8565b60405180910390fd5b5b60008060008060008060006122868a8a612524565b96509650965096509650965096506122e687600460008f73ffffffffffffffffffffffffffffffffffffffff1673ffffffffffffffffffffffffffffffffffffffff1681526020019081526020016000205461264290919063ffffffff16565b600460008e73ffffffffffffffffffffffffffffffffffffffff1673ffffffffffffffffffffffffffffffffffffffff1681526020019081526020016000208190555061237b86600460008e73ffffffffffffffffffffffffffffffffffffffff1673ffffffffffffffffffffffffffffffffffffffff1681526020019081526020016000205461202f90919063ffffffff16565b600460008d73ffffffffffffffffffffffffffffffffffffffff1673ffffffffffffffffffffffffffffffffffffffff168152602001908152602001600020819055506123c982828a61268c565b6123d385846128d1565b8a73ffffffffffffffffffffffffffffffffffffffff168c73ffffffffffffffffffffffffffffffffffffffff167fddf252ad1be2c89b69c2b068fc378daa952ba7f163c4a11628f55a4df523b3ef866040516124309190614018565b60405180910390a3505050505050505050505050565b806124545761245361290b565b5b6124608484848461296d565b8061246e5761246d612b47565b5b50505050565b600080600060155490506000601454905061249c601454601554611fe590919063ffffffff16565b8210156124b4576015546014549350935050506124bd565b81819350935050505b9091565b60008083118290612508576040517f08c379a00000000000000000000000000000000000000000000000000000000081526004016124ff9190613e16565b60405180910390fd5b506000838561251791906140e9565b9050809150509392505050565b600080600080600080600080600080600061253f8d8d612b64565b9350935093509350600061255d8e8585612557611fba565b86612ca2565b9050806016546003811061259a577f4e487b7100000000000000000000000000000000000000000000000000000000600052603260045260246000fd5b602002015181601754600381106125da577f4e487b7100000000000000000000000000000000000000000000000000000000600052603260045260246000fd5b6020020151826018546003811061261a577f4e487b7100000000000000000000000000000000000000000000000000000000600052603260045260246000fd5b6020020151878787879b509b509b509b509b509b509b50505050505092959891949750929550565b600061268483836040518060400160405280601e81526020017f536166654d6174683a207375627472616374696f6e206f766572666c6f770000815250611f56565b905092915050565b6000612696611fba565b905060006126ad8286612d6c90919063ffffffff16565b905060006126c48386612d6c90919063ffffffff16565b905061271882600460008773ffffffffffffffffffffffffffffffffffffffff1673ffffffffffffffffffffffffffffffffffffffff1681526020019081526020016000205461202f90919063ffffffff16565b600460008673ffffffffffffffffffffffffffffffffffffffff1673ffffffffffffffffffffffffffffffffffffffff168152602001908152602001600020819055508373ffffffffffffffffffffffffffffffffffffffff1661277a611b8d565b73ffffffffffffffffffffffffffffffffffffffff167fddf252ad1be2c89b69c2b068fc378daa952ba7f163c4a11628f55a4df523b3ef886040516127bf9190614018565b60405180910390a361281981600460008073ffffffffffffffffffffffffffffffffffffffff1673ffffffffffffffffffffffffffffffffffffffff1681526020019081526020016000205461202f90919063ffffffff16565b600460008073ffffffffffffffffffffffffffffffffffffffff1673ffffffffffffffffffffffffffffffffffffffff16815260200190815260200160002081905550600073ffffffffffffffffffffffffffffffffffffffff1661287c611b8d565b73ffffffffffffffffffffffffffffffffffffffff167fddf252ad1be2c89b69c2b068fc378daa952ba7f163c4a11628f55a4df523b3ef876040516128c19190614018565b60405180910390a3505050505050565b6128e68260155461264290919063ffffffff16565b6015819055506129018160135461202f90919063ffffffff16565b6013819055505050565b6000600d5414801561291f57506000600f54145b801561292d57506000600e54145b156129375761296b565b600d54601181905550600f54601281905550600e546010819055506000600d819055506000600f819055506000600e819055505b565b60008060008060008060006129828989612de7565b96509650965096509650965096506129e287600460008e73ffffffffffffffffffffffffffffffffffffffff1673ffffffffffffffffffffffffffffffffffffffff1681526020019081526020016000205461264290919063ffffffff16565b600460008d73ffffffffffffffffffffffffffffffffffffffff1673ffffffffffffffffffffffffffffffffffffffff16815260200190815260200160002081905550612a7786600460008d73ffffffffffffffffffffffffffffffffffffffff1673ffffffffffffffffffffffffffffffffffffffff1681526020019081526020016000205461202f90919063ffffffff16565b600460008c73ffffffffffffffffffffffffffffffffffffffff1673ffffffffffffffffffffffffffffffffffffffff168152602001908152602001600020819055508715612acb57612aca8282612f5c565b5b612ad585846128d1565b8973ffffffffffffffffffffffffffffffffffffffff168b73ffffffffffffffffffffffffffffffffffffffff167fddf252ad1be2c89b69c2b068fc378daa952ba7f163c4a11628f55a4df523b3ef86604051612b329190614018565b60405180910390a35050505050505050505050565b601154600d81905550601054600e81905550601254600f81905550565b6000806000806000612bb48787600060038110612baa577f4e487b7100000000000000000000000000000000000000000000000000000000600052603260045260246000fd5b6020020151613206565b90506000612c008888600160038110612bf6577f4e487b7100000000000000000000000000000000000000000000000000000000600052603260045260246000fd5b6020020151613236565b90506000612c4c8989600260038110612c42577f4e487b7100000000000000000000000000000000000000000000000000000000600052603260045260246000fd5b6020020151613266565b90506000612c8783612c7984612c6b888f61264290919063ffffffff16565b61264290919063ffffffff16565b61264290919063ffffffff16565b90508084838597509750975097505050505092959194509250565b612caa613518565b6000612cbf8488612d6c90919063ffffffff16565b90506000612cd68588612d6c90919063ffffffff16565b90506000612ced8688612d6c90919063ffffffff16565b90506000612d048787612d6c90919063ffffffff16565b90506000612d3f82612d3185612d23888a61264290919063ffffffff16565b61264290919063ffffffff16565b61264290919063ffffffff16565b90506040518060600160405280868152602001828152602001858152509550505050505095945050505050565b600080831415612d7f5760009050612de1565b60008284612d8d919061411a565b9050828482612d9c91906140e9565b14612ddc576040517f08c379a0000000000000000000000000000000000000000000000000000000008152600401612dd390613ef8565b60405180910390fd5b809150505b92915050565b600080600080600080600087612e49576000806000612e058c613296565b9250925092506000806000612e228f86612e1d611fba565b6132de565b92509250925082828288888860009c509c509c509c509c509c509c50505050505050612f50565b600080600080612e588d61333c565b93509350935093506000612e768e8585612e70611fba565b866133bb565b90508060165460038110612eb3577f4e487b7100000000000000000000000000000000000000000000000000000000600052603260045260246000fd5b60200201518160175460038110612ef3577f4e487b7100000000000000000000000000000000000000000000000000000000600052603260045260246000fd5b60200201518260185460038110612f33577f4e487b7100000000000000000000000000000000000000000000000000000000600052603260045260246000fd5b6020020151878787879b509b509b509b509b509b509b5050505050505b92959891949750929550565b6000612f66611fba565b90506000612f7d8285612d6c90919063ffffffff16565b90506000612f948385612d6c90919063ffffffff16565b905061300a8260046000600860009054906101000a900473ffffffffffffffffffffffffffffffffffffffff1673ffffffffffffffffffffffffffffffffffffffff1673ffffffffffffffffffffffffffffffffffffffff1681526020019081526020016000205461202f90919063ffffffff16565b60046000600860009054906101000a900473ffffffffffffffffffffffffffffffffffffffff1673ffffffffffffffffffffffffffffffffffffffff1673ffffffffffffffffffffffffffffffffffffffff16815260200190815260200160002081905550600860009054906101000a900473ffffffffffffffffffffffffffffffffffffffff1673ffffffffffffffffffffffffffffffffffffffff166130b0611b8d565b73ffffffffffffffffffffffffffffffffffffffff167fddf252ad1be2c89b69c2b068fc378daa952ba7f163c4a11628f55a4df523b3ef876040516130f59190614018565b60405180910390a361314f81600460008073ffffffffffffffffffffffffffffffffffffffff1673ffffffffffffffffffffffffffffffffffffffff1681526020019081526020016000205461202f90919063ffffffff16565b600460008073ffffffffffffffffffffffffffffffffffffffff1673ffffffffffffffffffffffffffffffffffffffff16815260200190815260200160002081905550600073ffffffffffffffffffffffffffffffffffffffff166131b2611b8d565b73ffffffffffffffffffffffffffffffffffffffff167fddf252ad1be2c89b69c2b068fc378daa952ba7f163c4a11628f55a4df523b3ef866040516131f79190614018565b60405180910390a35050505050565b600061322e60646132208486612d6c90919063ffffffff16565b611fe590919063ffffffff16565b905092915050565b600061325e60646132508486612d6c90919063ffffffff16565b611fe590919063ffffffff16565b905092915050565b600061328e60646132808486612d6c90919063ffffffff16565b611fe590919063ffffffff16565b905092915050565b6000806000806132a585613485565b905060006132b2866134b6565b905060006132c9838861264290919063ffffffff16565b90508083839550955095505050509193909250565b6000806000806132f78588612d6c90919063ffffffff16565b9050600061330e8688612d6c90919063ffffffff16565b90506000613325828461264290919063ffffffff16565b905082818395509550955050505093509350939050565b600080600080600061334d86613485565b9050600061335a876134b6565b90506000613367886134e7565b905060006133a28261339485613386888e61264290919063ffffffff16565b61264290919063ffffffff16565b61264290919063ffffffff16565b9050808484849750975097509750505050509193509193565b6133c3613518565b60006133d88488612d6c90919063ffffffff16565b905060006133ef8588612d6c90919063ffffffff16565b905060006134068688612d6c90919063ffffffff16565b9050600061341d8787612d6c90919063ffffffff16565b905060006134588261344a8561343c888a61264290919063ffffffff16565b61264290919063ffffffff16565b61264290919063ffffffff16565b90506040518060600160405280868152602001828152602001858152509550505050505095945050505050565b60006134af60646134a1600d5485612d6c90919063ffffffff16565b611fe590919063ffffffff16565b9050919050565b60006134e060646134d2600f5485612d6c90919063ffffffff16565b611fe590919063ffffffff16565b9050919050565b60006135116064613503600e5485612d6c90919063ffffffff16565b611fe590919063ffffffff16565b9050919050565b6040518060600160405280600390602082028036833780820191505090505090565b60008135905061354981614300565b92915050565b60008135905061355e81614317565b92915050565b60008151905061357381614317565b92915050565b60006020828403121561358b57600080fd5b60006135998482850161353a565b91505092915050565b600080604083850312156135b557600080fd5b60006135c38582860161353a565b92505060206135d48582860161353a565b9150509250929050565b6000806000606084860312156135f357600080fd5b60006136018682870161353a565b93505060206136128682870161353a565b92505060406136238682870161354f565b9150509250925092565b6000806040838503121561364057600080fd5b600061364e8582860161353a565b925050602061365f8582860161354f565b9150509250929050565b60008060006060848603121561367e57600080fd5b600061368c8682870161353a565b935050602061369d8682870161354f565b92505060406136ae8682870161354f565b9150509250925092565b600080600080600060a086880312156136d057600080fd5b60006136de8882890161353a565b95505060206136ef8882890161354f565b94505060406137008882890161354f565b93505060606137118882890161354f565b92505060806137228882890161354f565b9150509295509295909350565b60006020828403121561374157600080fd5b600061374f8482850161354f565b91505092915050565b60006020828403121561376a57600080fd5b600061377884828501613564565b91505092915050565b6000806040838503121561379457600080fd5b60006137a28582860161354f565b92505060206137b38582860161353a565b9150509250929050565b6137c6816141a8565b82525050565b6137d5816141ba565b82525050565b60006137e682614077565b6137f08185614082565b93506138008185602086016141fd565b613809816142ef565b840191505092915050565b6000613821602383614082565b91507f45524332303a207472616e7366657220746f20746865207a65726f206164647260008301527f65737300000000000000000000000000000000000000000000000000000000006020830152604082019050919050565b6000613887602a83614082565b91507f416d6f756e74206d757374206265206c657373207468616e20746f74616c207260008301527f65666c656374696f6e73000000000000000000000000000000000000000000006020830152604082019050919050565b60006138ed602683614082565b91507f4f776e61626c653a206e6577206f776e657220697320746865207a65726f206160008301527f64647265737300000000000000000000000000000000000000000000000000006020830152604082019050919050565b6000613953602283614082565b91507f45524332303a20617070726f766520746f20746865207a65726f20616464726560008301527f73730000000000000000000000000000000000000000000000000000000000006020830152604082019050919050565b60006139b9601b83614082565b91507f536166654d6174683a206164646974696f6e206f766572666c6f7700000000006000830152602082019050919050565b60006139f9602883614082565b91507f5472616e7366657220616d6f756e74206578636565647320746865206d61785460008301527f78416d6f756e742e0000000000000000000000000000000000000000000000006020830152604082019050919050565b6000613a5f602183614082565b91507f536166654d6174683a206d756c7469706c69636174696f6e206f766572666c6f60008301527f77000000000000000000000000000000000000000000000000000000000000006020830152604082019050919050565b6000613ac5604283614082565b91507f5768616c654e6574776f726b3a205468697320696420697320616c726561647960008301527f2061737369676e65642077697468206120636f6e74726163742061646472657360208301527f732e0000000000000000000000000000000000000000000000000000000000006040830152606082019050919050565b6000613b51602083614082565b91507f4f776e61626c653a2063616c6c6572206973206e6f7420746865206f776e65726000830152602082019050919050565b6000613b91602983614082565b91507f5472616e7366657220616d6f756e74206d75737420626520677265617465722060008301527f7468616e207a65726f00000000000000000000000000000000000000000000006020830152604082019050919050565b6000613bf7603e83614082565b91507f5768616c654e6574776f726b3a205468657265206973206e6f20706172746e6560008301527f7220636f6e747261637420666f72207468652070726f766964656420496400006020830152604082019050919050565b6000613c5d602583614082565b91507f45524332303a207472616e736665722066726f6d20746865207a65726f20616460008301527f64726573730000000000000000000000000000000000000000000000000000006020830152604082019050919050565b6000613cc3602483614082565b91507f45524332303a20617070726f76652066726f6d20746865207a65726f2061646460008301527f72657373000000000000000000000000000000000000000000000000000000006020830152604082019050919050565b6000613d29601f83614082565b91507f436f6e7472616374206973206c6f636b656420756e74696c20372064617973006000830152602082019050919050565b6000613d69602383614082565b91507f596f7520646f6e27742068617665207065726d697373696f6e20746f20756e6c60008301527f6f636b00000000000000000000000000000000000000000000000000000000006020830152604082019050919050565b613dcb816141e6565b82525050565b613dda816141f0565b82525050565b6000602082019050613df560008301846137bd565b92915050565b6000602082019050613e1060008301846137cc565b92915050565b60006020820190508181036000830152613e3081846137db565b905092915050565b60006020820190508181036000830152613e5181613814565b9050919050565b60006020820190508181036000830152613e718161387a565b9050919050565b60006020820190508181036000830152613e91816138e0565b9050919050565b60006020820190508181036000830152613eb181613946565b9050919050565b60006020820190508181036000830152613ed1816139ac565b9050919050565b60006020820190508181036000830152613ef1816139ec565b9050919050565b60006020820190508181036000830152613f1181613a52565b9050919050565b60006020820190508181036000830152613f3181613ab8565b9050919050565b60006020820190508181036000830152613f5181613b44565b9050919050565b60006020820190508181036000830152613f7181613b84565b9050919050565b60006020820190508181036000830152613f9181613bea565b9050919050565b60006020820190508181036000830152613fb181613c50565b9050919050565b60006020820190508181036000830152613fd181613cb6565b9050919050565b60006020820190508181036000830152613ff181613d1c565b9050919050565b6000602082019050818103600083015261401181613d5c565b9050919050565b600060208201905061402d6000830184613dc2565b92915050565b60006040820190506140486000830185613dc2565b61405560208301846137bd565b9392505050565b60006020820190506140716000830184613dd1565b92915050565b600081519050919050565b600082825260208201905092915050565b600061409e826141e6565b91506140a9836141e6565b9250827fffffffffffffffffffffffffffffffffffffffffffffffffffffffffffffffff038211156140de576140dd614262565b5b828201905092915050565b60006140f4826141e6565b91506140ff836141e6565b92508261410f5761410e614291565b5b828204905092915050565b6000614125826141e6565b9150614130836141e6565b9250817fffffffffffffffffffffffffffffffffffffffffffffffffffffffffffffffff048311821515161561416957614168614262565b5b828202905092915050565b600061417f826141e6565b915061418a836141e6565b92508282101561419d5761419c614262565b5b828203905092915050565b60006141b3826141c6565b9050919050565b60008115159050919050565b600073ffffffffffffffffffffffffffffffffffffffff82169050919050565b6000819050919050565b600060ff82169050919050565b60005b8381101561421b578082015181840152602081019050614200565b8381111561422a576000848401525b50505050565b6000600282049050600182168061424857607f821691505b6020821081141561425c5761425b6142c0565b5b50919050565b7f4e487b7100000000000000000000000000000000000000000000000000000000600052601160045260246000fd5b7f4e487b7100000000000000000000000000000000000000000000000000000000600052601260045260246000fd5b7f4e487b7100000000000000000000000000000000000000000000000000000000600052602260045260246000fd5b6000601f19601f8301169050919050565b614309816141a8565b811461431457600080fd5b50565b614320816141e6565b811461432b57600080fd5b5056fe45524332303a207472616e7366657220616d6f756e74206578636565647320616c6c6f77616e636545524332303a2064656372656173656420616c6c6f77616e63652062656c6f77207a65726fa2646970667358221220856df92f0eb28993baabd3fd1aae5bf4e701ea1a44a26591eacaa819507a580364736f6c63430008000033",
  "immutableReferences": {},
  "source": "// SPDX-License-Identifier: MIT\r\n\r\npragma solidity ^0.8.0;\r\n\r\nlibrary SafeMath {\r\n    function add(uint256 a, uint256 b) internal pure returns (uint256) {\r\n        uint256 c = a + b;\r\n        require(c >= a, \"SafeMath: addition overflow\");\r\n\r\n        return c;\r\n    }\r\n\r\n    function sub(uint256 a, uint256 b) internal pure returns (uint256) {\r\n        return sub(a, b, \"SafeMath: subtraction overflow\");\r\n    }\r\n\r\n    function sub(\r\n        uint256 a,\r\n        uint256 b,\r\n        string memory errorMessage\r\n    ) internal pure returns (uint256) {\r\n        require(b <= a, errorMessage);\r\n        uint256 c = a - b;\r\n\r\n        return c;\r\n    }\r\n\r\n    function mul(uint256 a, uint256 b) internal pure returns (uint256) {\r\n        // Gas optimization: this is cheaper than requiring 'a' not being zero, but the\r\n        // benefit is lost if 'b' is also tested.\r\n        // See: https://github.com/OpenZeppelin/openzeppelin-contracts/pull/522\r\n        if (a == 0) {\r\n            return 0;\r\n        }\r\n\r\n        uint256 c = a * b;\r\n        require(c / a == b, \"SafeMath: multiplication overflow\");\r\n\r\n        return c;\r\n    }\r\n\r\n    function div(uint256 a, uint256 b) internal pure returns (uint256) {\r\n        return div(a, b, \"SafeMath: division by zero\");\r\n    }\r\n\r\n    function div(\r\n        uint256 a,\r\n        uint256 b,\r\n        string memory errorMessage\r\n    ) internal pure returns (uint256) {\r\n        require(b > 0, errorMessage);\r\n        uint256 c = a / b;\r\n        // assert(a == b * c + a % b); // There is no case in which this doesn't hold\r\n\r\n        return c;\r\n    }\r\n\r\n    function mod(uint256 a, uint256 b) internal pure returns (uint256) {\r\n        return mod(a, b, \"SafeMath: modulo by zero\");\r\n    }\r\n\r\n    function mod(\r\n        uint256 a,\r\n        uint256 b,\r\n        string memory errorMessage\r\n    ) internal pure returns (uint256) {\r\n        require(b != 0, errorMessage);\r\n        return a % b;\r\n    }\r\n}\r\n\r\nlibrary Address {\r\n    function isContract(address account) internal view returns (bool) {\r\n        // According to EIP-1052, 0x0 is the value returned for not-yet created accounts\r\n        // and 0xc5d2460186f7233c927e7db2dcc703c0e500b653ca82273b7bfad8045d85a470 is returned\r\n        // for accounts without code, i.e. `keccak256('')`\r\n        bytes32 codehash;\r\n        bytes32 accountHash = 0xc5d2460186f7233c927e7db2dcc703c0e500b653ca82273b7bfad8045d85a470;\r\n        // solhint-disable-next-line no-inline-assembly\r\n        assembly {\r\n            codehash := extcodehash(account)\r\n        }\r\n        return (codehash != accountHash && codehash != 0x0);\r\n    }\r\n\r\n    function sendValue(address payable recipient, uint256 amount) internal {\r\n        require(\r\n            address(this).balance >= amount,\r\n            \"Address: insufficient balance\"\r\n        );\r\n\r\n        // solhint-disable-next-line avoid-low-level-calls, avoid-call-value\r\n        (bool success, ) = recipient.call{value: amount}(\"\");\r\n        require(\r\n            success,\r\n            \"Address: unable to send value, recipient may have reverted\"\r\n        );\r\n    }\r\n\r\n    function functionCall(address target, bytes memory data)\r\n        internal\r\n        returns (bytes memory)\r\n    {\r\n        return functionCall(target, data, \"Address: low-level call failed\");\r\n    }\r\n\r\n    function functionCall(\r\n        address target,\r\n        bytes memory data,\r\n        string memory errorMessage\r\n    ) internal returns (bytes memory) {\r\n        return _functionCallWithValue(target, data, 0, errorMessage);\r\n    }\r\n\r\n    function functionCallWithValue(\r\n        address target,\r\n        bytes memory data,\r\n        uint256 value\r\n    ) internal returns (bytes memory) {\r\n        return\r\n            functionCallWithValue(\r\n                target,\r\n                data,\r\n                value,\r\n                \"Address: low-level call with value failed\"\r\n            );\r\n    }\r\n\r\n    function functionCallWithValue(\r\n        address target,\r\n        bytes memory data,\r\n        uint256 value,\r\n        string memory errorMessage\r\n    ) internal returns (bytes memory) {\r\n        require(\r\n            address(this).balance >= value,\r\n            \"Address: insufficient balance for call\"\r\n        );\r\n        return _functionCallWithValue(target, data, value, errorMessage);\r\n    }\r\n\r\n    function _functionCallWithValue(\r\n        address target,\r\n        bytes memory data,\r\n        uint256 weiValue,\r\n        string memory errorMessage\r\n    ) private returns (bytes memory) {\r\n        require(isContract(target), \"Address: call to non-contract\");\r\n\r\n        // solhint-disable-next-line avoid-low-level-calls\r\n        (bool success, bytes memory returndata) = target.call{value: weiValue}(\r\n            data\r\n        );\r\n        if (success) {\r\n            return returndata;\r\n        } else {\r\n            // Look for revert reason and bubble it up if present\r\n            if (returndata.length > 0) {\r\n                // The easiest way to bubble the revert reason is using memory via assembly\r\n\r\n                // solhint-disable-next-line no-inline-assembly\r\n                assembly {\r\n                    let returndata_size := mload(returndata)\r\n                    revert(add(32, returndata), returndata_size)\r\n                }\r\n            } else {\r\n                revert(errorMessage);\r\n            }\r\n        }\r\n    }\r\n}\r\n\r\ninterface IERC20 {\r\n    /**\r\n     * @dev Returns the amount of tokens in existence.\r\n     */\r\n    function totalSupply() external view returns (uint256);\r\n\r\n    /**\r\n     * @dev Returns the amount of tokens owned by `account`.\r\n     */\r\n    function balanceOf(address account) external view returns (uint256);\r\n\r\n    /**\r\n     * @dev Moves `amount` tokens from the caller's account to `recipient`.\r\n     *\r\n     * Returns a boolean value indicating whether the operation succeeded.\r\n     *\r\n     * Emits a {Transfer} event.\r\n     */\r\n    function transfer(address recipient, uint256 amount)\r\n        external\r\n        returns (bool);\r\n\r\n    /**\r\n     * @dev Returns the remaining number of tokens that `spender` will be\r\n     * allowed to spend on behalf of `owner` through {transferFrom}. This is\r\n     * zero by default.\r\n     *\r\n     * This value changes when {approve} or {transferFrom} are called.\r\n     */\r\n    function allowance(address owner, address spender)\r\n        external\r\n        view\r\n        returns (uint256);\r\n\r\n    /**\r\n     * @dev Sets `amount` as the allowance of `spender` over the caller's tokens.\r\n     *\r\n     * Returns a boolean value indicating whether the operation succeeded.\r\n     *\r\n     * IMPORTANT: Beware that changing an allowance with this method brings the risk\r\n     * that someone may use both the old and the new allowance by unfortunate\r\n     * transaction ordering. One possible solution to mitigate this race\r\n     * condition is to first reduce the spender's allowance to 0 and set the\r\n     * desired value afterwards:\r\n     * https://github.com/ethereum/EIPs/issues/20#issuecomment-263524729\r\n     *\r\n     * Emits an {Approval} event.\r\n     */\r\n    function approve(address spender, uint256 amount) external returns (bool);\r\n\r\n    /**\r\n     * @dev Moves `amount` tokens from `sender` to `recipient` using the\r\n     * allowance mechanism. `amount` is then deducted from the caller's\r\n     * allowance.\r\n     *\r\n     * Returns a boolean value indicating whether the operation succeeded.\r\n     *\r\n     * Emits a {Transfer} event.\r\n     */\r\n    function transferFrom(\r\n        address sender,\r\n        address recipient,\r\n        uint256 amount\r\n    ) external returns (bool);\r\n\r\n    /**\r\n     * @dev Emitted when `value` tokens are moved from one account (`from`) to\r\n     * another (`to`).\r\n     *\r\n     * Note that `value` may be zero.\r\n     */\r\n    event Transfer(address indexed from, address indexed to, uint256 value);\r\n\r\n    /**\r\n     * @dev Emitted when the allowance of a `spender` for an `owner` is set by\r\n     * a call to {approve}. `value` is the new allowance.\r\n     */\r\n    event Approval(\r\n        address indexed owner,\r\n        address indexed spender,\r\n        uint256 value\r\n    );\r\n}\r\n\r\ninterface IERC20Metadata is IERC20 {\r\n    /**\r\n     * @dev Returns the name of the token.\r\n     */\r\n    function name() external view returns (string memory);\r\n\r\n    /**\r\n     * @dev Returns the symbol of the token.\r\n     */\r\n    function symbol() external view returns (string memory);\r\n\r\n    /**\r\n     * @dev Returns the decimals places of the token.\r\n     */\r\n    function decimals() external view returns (uint8);\r\n}\r\n\r\ninterface IWhaleNetworkPartner {\r\n    function taxFee() external view returns (uint256);\r\n\r\n    function burnFee() external view returns (uint256);\r\n\r\n    function serviceFee() external view returns (uint256);\r\n\r\n    function partnerShare() external view returns (uint256);\r\n}\r\n\r\nabstract contract Context {\r\n    function _msgSender() internal view virtual returns (address) {\r\n        return msg.sender;\r\n    }\r\n\r\n    function _msgData() internal view virtual returns (bytes calldata) {\r\n        return msg.data;\r\n    }\r\n}\r\n\r\ncontract Ownable is Context {\r\n    address private _owner;\r\n    address private _previousOwner;\r\n    uint256 private _lockTime;\r\n\r\n    event OwnershipTransferred(\r\n        address indexed previousOwner,\r\n        address indexed newOwner\r\n    );\r\n\r\n    constructor() {\r\n        address msgSender = _msgSender();\r\n        _owner = msgSender;\r\n        emit OwnershipTransferred(address(0), msgSender);\r\n    }\r\n\r\n    function owner() public view returns (address) {\r\n        return _owner;\r\n    }\r\n\r\n    modifier onlyOwner() {\r\n        require(_owner == _msgSender(), \"Ownable: caller is not the owner\");\r\n        _;\r\n    }\r\n\r\n    function renounceOwnership() public virtual onlyOwner {\r\n        emit OwnershipTransferred(_owner, address(0));\r\n        _owner = address(0);\r\n    }\r\n\r\n    function transferOwnership(address newOwner) public virtual onlyOwner {\r\n        require(\r\n            newOwner != address(0),\r\n            \"Ownable: new owner is the zero address\"\r\n        );\r\n        emit OwnershipTransferred(_owner, newOwner);\r\n        _owner = newOwner;\r\n    }\r\n\r\n    function geUnlockTime() public view returns (uint256) {\r\n        return _lockTime;\r\n    }\r\n\r\n    //Locks the contract for owner for the amount of time provided\r\n    function lock(uint256 time) public virtual onlyOwner {\r\n        _previousOwner = _owner;\r\n        _owner = address(0);\r\n        _lockTime = block.timestamp + time;\r\n        emit OwnershipTransferred(_owner, address(0));\r\n    }\r\n\r\n    //Unlocks the contract for owner when _lockTime is exceeds\r\n    function unlock() public virtual {\r\n        require(\r\n            _previousOwner == msg.sender,\r\n            \"You don't have permission to unlock\"\r\n        );\r\n        require(block.timestamp > _lockTime, \"Contract is locked until 7 days\");\r\n        emit OwnershipTransferred(_owner, _previousOwner);\r\n        _owner = _previousOwner;\r\n    }\r\n}\r\n\r\ncontract WhaleNetwork is Context, IERC20, IERC20Metadata, Ownable {\r\n    using SafeMath for uint256;\r\n    using Address for address;\r\n\r\n    mapping(address => uint256) private _balances;\r\n    mapping(address => uint256) private _rOwned;\r\n    mapping(address => uint256) private _tOwned;\r\n    mapping(address => mapping(address => uint256)) private _allowances;\r\n    mapping(uint256 => address) private _partnershipContracts;\r\n\r\n    address private _serviceFeeCollector;\r\n\r\n    string private _name;\r\n    string private _symbol;\r\n\r\n    uint8 private _decimals;\r\n\r\n    uint256 public _maxTxAmount = 10 * 10**6 * 10**18;\r\n    uint256 public _taxFee = 5;\r\n    uint256 public _burnFee = 5;\r\n    uint256 public _serviceFee = 10;\r\n    uint256 private _previousBurnFee = _burnFee;\r\n    uint256 private _previousTaxFee = _taxFee;\r\n    uint256 private _previousServiceFee = _serviceFee;\r\n    uint256 private _tFeeTotal;\r\n    uint256 private constant MAX = ~uint256(0);\r\n    uint256 private _tTotal;\r\n    uint256 private _rTotal;\r\n    uint256 private INDEX_R_AMOUNT = 0;\r\n    uint256 private INDEX_R_TRANSFER_AMOUNT = 1;\r\n    uint256 private INDEX_R_FEE = 2;\r\n\r\n    constructor() {\r\n        _name = \"Whales Network\";\r\n        _symbol = \"WHALES\";\r\n        _tTotal = 21 * 10**6 * 10**18;\r\n        _rTotal = (MAX - (MAX % _tTotal));\r\n        _decimals = 18;\r\n        _rOwned[_msgSender()] = _rTotal;\r\n        emit Transfer(address(0), _msgSender(), _tTotal);\r\n    }\r\n\r\n    function addPartnership(uint256 partnerId, address contractAddress)\r\n        external\r\n        onlyOwner\r\n        returns (uint256, address)\r\n    {\r\n        require(\r\n            _partnershipContracts[partnerId] == address(0),\r\n            \"WhaleNetwork: This id is already assigned with a contract address.\"\r\n        );\r\n        _partnershipContracts[partnerId] = contractAddress;\r\n        return (partnerId, contractAddress);\r\n    }\r\n\r\n    function decimals() public view virtual override returns (uint8) {\r\n        return _decimals;\r\n    }\r\n\r\n    function name() public view virtual override returns (string memory) {\r\n        return _name;\r\n    }\r\n\r\n    function symbol() public view virtual override returns (string memory) {\r\n        return _symbol;\r\n    }\r\n\r\n    function totalSupply() public view virtual override returns (uint256) {\r\n        return _tTotal;\r\n    }\r\n\r\n    function serviceFeeCollector() public view returns (address) {\r\n        return _serviceFeeCollector;\r\n    }\r\n\r\n    function setServiceFeeCollector(address collector)\r\n        public\r\n        onlyOwner\r\n        returns (bool)\r\n    {\r\n        _serviceFeeCollector = collector;\r\n        return true;\r\n    }\r\n\r\n    function setMaxTxAmount(uint256 maxTxAmount)\r\n        public\r\n        onlyOwner\r\n        returns (bool)\r\n    {\r\n        _maxTxAmount = maxTxAmount;\r\n        return true;\r\n    }\r\n\r\n    function setTaxFee(uint256 taxFee) public onlyOwner returns (bool) {\r\n        _taxFee = taxFee;\r\n        return true;\r\n    }\r\n\r\n    function setServiceFee(uint256 serviceFee) public onlyOwner returns (bool) {\r\n        _serviceFee = serviceFee;\r\n        return true;\r\n    }\r\n\r\n    function setBurnFee(uint256 burnFee) public onlyOwner returns (bool) {\r\n        _burnFee = burnFee;\r\n        return true;\r\n    }\r\n\r\n    function balanceOf(address account)\r\n        public\r\n        view\r\n        virtual\r\n        override\r\n        returns (uint256)\r\n    {\r\n        return tokenFromReflection(_rOwned[account]);\r\n    }\r\n\r\n    function transfer(address recipient, uint256 amount)\r\n        public\r\n        virtual\r\n        override\r\n        returns (bool)\r\n    {\r\n        _transfer(_msgSender(), recipient, amount, false);\r\n        return true;\r\n    }\r\n\r\n    function payment(address recipient, uint256 amount)\r\n        public\r\n        virtual\r\n        returns (bool)\r\n    {\r\n        _transfer(_msgSender(), recipient, amount, true);\r\n        return true;\r\n    }\r\n\r\n    function customPayment(\r\n        address recipient,\r\n        uint256 amount,\r\n        uint256 taxFee,\r\n        uint256 burnFee,\r\n        uint256 serviceFee\r\n    ) public returns (bool) {\r\n        _transferCustomPayment(\r\n            _msgSender(),\r\n            recipient,\r\n            amount,\r\n            [taxFee, burnFee, serviceFee],\r\n            _serviceFeeCollector\r\n        );\r\n        return true;\r\n    }\r\n\r\n    function partnerPayment(\r\n        address recipient,\r\n        uint256 amount,\r\n        uint256 partnerId\r\n    ) public returns (bool) {\r\n        require(\r\n            _partnershipContracts[partnerId] != address(0),\r\n            \"WhaleNetwork: There is no partner contract for the provided Id\"\r\n        );\r\n        IWhaleNetworkPartner partner = IWhaleNetworkPartner(\r\n            _partnershipContracts[partnerId]\r\n        );\r\n        _transferCustomPayment(\r\n            _msgSender(),\r\n            recipient,\r\n            amount,\r\n            [partner.taxFee(), partner.burnFee(), partner.serviceFee()],\r\n            _partnershipContracts[partnerId]\r\n        );\r\n        return true;\r\n    }\r\n\r\n    function allowance(address owner, address spender)\r\n        public\r\n        view\r\n        virtual\r\n        override\r\n        returns (uint256)\r\n    {\r\n        return _allowances[owner][spender];\r\n    }\r\n\r\n    function approve(address spender, uint256 amount)\r\n        public\r\n        virtual\r\n        override\r\n        returns (bool)\r\n    {\r\n        _approve(_msgSender(), spender, amount);\r\n        return true;\r\n    }\r\n\r\n    function transferFrom(\r\n        address sender,\r\n        address recipient,\r\n        uint256 amount\r\n    ) public virtual override returns (bool) {\r\n        _transfer(sender, recipient, amount, false);\r\n        _approve(\r\n            sender,\r\n            _msgSender(),\r\n            _allowances[sender][_msgSender()].sub(\r\n                amount,\r\n                \"ERC20: transfer amount exceeds allowance\"\r\n            )\r\n        );\r\n        return true;\r\n    }\r\n\r\n    function increaseAllowance(address spender, uint256 addedValue)\r\n        public\r\n        virtual\r\n        returns (bool)\r\n    {\r\n        _approve(\r\n            _msgSender(),\r\n            spender,\r\n            _allowances[_msgSender()][spender].add(addedValue)\r\n        );\r\n        return true;\r\n    }\r\n\r\n    function decreaseAllowance(address spender, uint256 subtractedValue)\r\n        public\r\n        virtual\r\n        returns (bool)\r\n    {\r\n        _approve(\r\n            _msgSender(),\r\n            spender,\r\n            _allowances[_msgSender()][spender].sub(\r\n                subtractedValue,\r\n                \"ERC20: decreased allowance below zero\"\r\n            )\r\n        );\r\n        return true;\r\n    }\r\n\r\n    function totalFees() public view returns (uint256) {\r\n        return _tFeeTotal;\r\n    }\r\n\r\n    function tokenFromReflection(uint256 rAmount)\r\n        public\r\n        view\r\n        returns (uint256)\r\n    {\r\n        require(\r\n            rAmount <= _rTotal,\r\n            \"Amount must be less than total reflections\"\r\n        );\r\n        uint256 currentRate = _getRate();\r\n        return rAmount.div(currentRate);\r\n    }\r\n\r\n    function _transfer(\r\n        address sender,\r\n        address recipient,\r\n        uint256 amount,\r\n        bool isPayment\r\n    ) internal virtual {\r\n        require(sender != address(0), \"ERC20: transfer from the zero address\");\r\n        require(recipient != address(0), \"ERC20: transfer to the zero address\");\r\n        require(amount > 0, \"Transfer amount must be greater than zero\");\r\n\r\n        if (sender != owner() && recipient != owner())\r\n            require(\r\n                amount <= _maxTxAmount,\r\n                \"Transfer amount exceeds the maxTxAmount.\"\r\n            );\r\n\r\n        //transfer amount, it will take tax & burn\r\n        _tokenTransfer(sender, recipient, amount, isPayment);\r\n    }\r\n\r\n    function _transferCustomPayment(\r\n        address sender,\r\n        address recipient,\r\n        uint256 tAmount,\r\n        uint256[3] memory fees,\r\n        address svcFeeCollector\r\n    ) internal {\r\n        require(sender != address(0), \"ERC20: transfer from the zero address\");\r\n        require(recipient != address(0), \"ERC20: transfer to the zero address\");\r\n        require(tAmount > 0, \"Transfer amount must be greater than zero\");\r\n\r\n        if (sender != owner() && recipient != owner())\r\n            require(\r\n                tAmount <= _maxTxAmount,\r\n                \"Transfer amount exceeds the maxTxAmount.\"\r\n            );\r\n\r\n        (\r\n            uint256 rAmount,\r\n            uint256 rTransferAmount,\r\n            uint256 rFee,\r\n            uint256 tTransferAmount,\r\n            uint256 tFee,\r\n            uint256 tServiceFee,\r\n            uint256 tBurn\r\n        ) = _getValuesCustom(tAmount, fees);\r\n\r\n        _rOwned[sender] = _rOwned[sender].sub(rAmount);\r\n        _rOwned[recipient] = _rOwned[recipient].add(rTransferAmount);\r\n        _takeServiceFeeCustom(tServiceFee, tBurn, svcFeeCollector);\r\n        _reflectFee(rFee, tFee);\r\n        emit Transfer(sender, recipient, tTransferAmount);\r\n    }\r\n\r\n    function _removeAllFee() private {\r\n        if (_taxFee == 0 && _serviceFee == 0 && _burnFee == 0) return;\r\n        _previousTaxFee = _taxFee;\r\n        _previousServiceFee = _serviceFee;\r\n        _previousBurnFee = _burnFee;\r\n\r\n        _taxFee = 0;\r\n        _serviceFee = 0;\r\n        _burnFee = 0;\r\n    }\r\n\r\n    function _restoreAllFee() private {\r\n        _taxFee = _previousTaxFee;\r\n        _burnFee = _previousBurnFee;\r\n        _serviceFee = _previousServiceFee;\r\n    }\r\n\r\n    function _tokenTransfer(\r\n        address sender,\r\n        address recipient,\r\n        uint256 amount,\r\n        bool isPayment\r\n    ) private {\r\n        if (!isPayment) _removeAllFee();\r\n        _transferFinal(sender, recipient, amount, isPayment);\r\n        if (!isPayment) _restoreAllFee();\r\n    }\r\n\r\n    function _getValues(uint256 tAmount, bool isPayment)\r\n        private\r\n        view\r\n        returns (\r\n            uint256,\r\n            uint256,\r\n            uint256,\r\n            uint256,\r\n            uint256,\r\n            uint256,\r\n            uint256\r\n        )\r\n    {\r\n        if (!isPayment) {\r\n            (\r\n                uint256 tTransferAmount,\r\n                uint256 tFee,\r\n                uint256 tServiceFee\r\n            ) = _getTValues(tAmount);\r\n            (\r\n                uint256 rAmount,\r\n                uint256 rTransferAmount,\r\n                uint256 rFee\r\n            ) = _getRValues(tAmount, tFee, _getRate());\r\n            return (\r\n                rAmount,\r\n                rTransferAmount,\r\n                rFee,\r\n                tTransferAmount,\r\n                tFee,\r\n                tServiceFee,\r\n                0\r\n            );\r\n        } else {\r\n            (\r\n                uint256 tTransferAmount,\r\n                uint256 tFee,\r\n                uint256 tServiceFee,\r\n                uint256 tBurn\r\n            ) = _getPaymentTValues(tAmount);\r\n            uint256[3] memory rValues = _getPaymentRValues(\r\n                tAmount,\r\n                tFee,\r\n                tServiceFee,\r\n                _getRate(),\r\n                tBurn\r\n            );\r\n            return (\r\n                rValues[INDEX_R_AMOUNT],\r\n                rValues[INDEX_R_TRANSFER_AMOUNT],\r\n                rValues[INDEX_R_FEE],\r\n                tTransferAmount,\r\n                tFee,\r\n                tServiceFee,\r\n                tBurn\r\n            );\r\n        }\r\n    }\r\n\r\n    function _getValuesCustom(uint256 tAmount, uint256[3] memory fees)\r\n        private\r\n        view\r\n        returns (\r\n            uint256,\r\n            uint256,\r\n            uint256,\r\n            uint256,\r\n            uint256,\r\n            uint256,\r\n            uint256\r\n        )\r\n    {\r\n        (\r\n            uint256 tTransferAmount,\r\n            uint256 tFee,\r\n            uint256 tServiceFee,\r\n            uint256 tBurn\r\n        ) = _getTValuesCustom(tAmount, fees);\r\n        uint256[3] memory rValues = _getRValuesCustom(\r\n            tAmount,\r\n            tFee,\r\n            tServiceFee,\r\n            _getRate(),\r\n            tBurn\r\n        );\r\n        return (\r\n            rValues[INDEX_R_AMOUNT],\r\n            rValues[INDEX_R_TRANSFER_AMOUNT],\r\n            rValues[INDEX_R_FEE],\r\n            tTransferAmount,\r\n            tFee,\r\n            tServiceFee,\r\n            tBurn\r\n        );\r\n    }\r\n\r\n    function _getTValuesCustom(uint256 tAmount, uint256[3] memory fee)\r\n        private\r\n        pure\r\n        returns (\r\n            uint256,\r\n            uint256,\r\n            uint256,\r\n            uint256\r\n        )\r\n    {\r\n        uint256 tFee = _calculateCustomTaxFee(tAmount, fee[0]);\r\n        uint256 tBurn = _calculateCustomBurnAmount(tAmount, fee[1]);\r\n        uint256 tServiceFee = _calculateCustomServiceFee(tAmount, fee[2]);\r\n        uint256 tTransferAmount = tAmount.sub(tFee).sub(tServiceFee).sub(tBurn);\r\n        return (tTransferAmount, tFee, tServiceFee, tBurn);\r\n    }\r\n\r\n    function _getRValuesCustom(\r\n        uint256 tAmount,\r\n        uint256 tFee,\r\n        uint256 tServiceFee,\r\n        uint256 currentRate,\r\n        uint256 tBurn\r\n    ) private pure returns (uint256[3] memory) {\r\n        uint256 rAmount = tAmount.mul(currentRate);\r\n        uint256 rFee = tFee.mul(currentRate);\r\n        uint256 rServiceFee = tServiceFee.mul(currentRate);\r\n        uint256 rBurn = tBurn.mul(currentRate);\r\n        uint256 rTransferAmount = rAmount.sub(rFee).sub(rServiceFee).sub(rBurn);\r\n        return [rAmount, rTransferAmount, rFee];\r\n    }\r\n\r\n    function _calculateTaxFee(uint256 _amount) private view returns (uint256) {\r\n        return _amount.mul(_taxFee).div(10**2);\r\n    }\r\n\r\n    function _calculateCustomTaxFee(uint256 _amount, uint256 taxFee)\r\n        private\r\n        pure\r\n        returns (uint256)\r\n    {\r\n        return _amount.mul(taxFee).div(10**2);\r\n    }\r\n\r\n    function _calculateServiceFee(uint256 _amount)\r\n        private\r\n        view\r\n        returns (uint256)\r\n    {\r\n        return _amount.mul(_serviceFee).div(10**2);\r\n    }\r\n\r\n    function _calculateCustomServiceFee(uint256 _amount, uint256 serviceFee)\r\n        private\r\n        pure\r\n        returns (uint256)\r\n    {\r\n        return _amount.mul(serviceFee).div(10**2);\r\n    }\r\n\r\n    function _calculateBurnAmount(uint256 _amount)\r\n        private\r\n        view\r\n        returns (uint256)\r\n    {\r\n        return _amount.mul(_burnFee).div(10**2);\r\n    }\r\n\r\n    function _calculateCustomBurnAmount(uint256 _amount, uint256 burnFee)\r\n        private\r\n        pure\r\n        returns (uint256)\r\n    {\r\n        return _amount.mul(burnFee).div(10**2);\r\n    }\r\n\r\n    function _getTValues(uint256 tAmount)\r\n        private\r\n        view\r\n        returns (\r\n            uint256,\r\n            uint256,\r\n            uint256\r\n        )\r\n    {\r\n        uint256 tFee = _calculateTaxFee(tAmount);\r\n        uint256 tServiceFee = _calculateServiceFee(tAmount);\r\n        uint256 tTransferAmount = tAmount.sub(tFee);\r\n        return (tTransferAmount, tFee, tServiceFee);\r\n    }\r\n\r\n    function _getRValues(\r\n        uint256 tAmount,\r\n        uint256 tFee,\r\n        uint256 currentRate\r\n    )\r\n        private\r\n        pure\r\n        returns (\r\n            uint256,\r\n            uint256,\r\n            uint256\r\n        )\r\n    {\r\n        uint256 rAmount = tAmount.mul(currentRate);\r\n        uint256 rFee = tFee.mul(currentRate);\r\n        uint256 rTransferAmount = rAmount.sub(rFee);\r\n        return (rAmount, rTransferAmount, rFee);\r\n    }\r\n\r\n    function _getPaymentTValues(uint256 tAmount)\r\n        private\r\n        view\r\n        returns (\r\n            uint256,\r\n            uint256,\r\n            uint256,\r\n            uint256\r\n        )\r\n    {\r\n        uint256 tFee = _calculateTaxFee(tAmount);\r\n        uint256 tServiceFee = _calculateServiceFee(tAmount);\r\n        uint256 tBurn = _calculateBurnAmount(tAmount);\r\n        uint256 tTransferAmount = tAmount.sub(tFee).sub(tServiceFee).sub(tBurn);\r\n        return (tTransferAmount, tFee, tServiceFee, tBurn);\r\n    }\r\n\r\n    function _getPaymentRValues(\r\n        uint256 tAmount,\r\n        uint256 tFee,\r\n        uint256 tServiceFee,\r\n        uint256 currentRate,\r\n        uint256 tBurn\r\n    ) private pure returns (uint256[3] memory) {\r\n        uint256 rAmount = tAmount.mul(currentRate);\r\n        uint256 rFee = tFee.mul(currentRate);\r\n        uint256 rServiceFee = tServiceFee.mul(currentRate);\r\n        uint256 rBurn = tBurn.mul(currentRate);\r\n        uint256 rTransferAmount = rAmount.sub(rFee).sub(rServiceFee).sub(rBurn);\r\n        return [rAmount, rTransferAmount, rFee];\r\n    }\r\n\r\n    function _transferFinal(\r\n        address sender,\r\n        address recipient,\r\n        uint256 tAmount,\r\n        bool isPayment\r\n    ) private {\r\n        (\r\n            uint256 rAmount,\r\n            uint256 rTransferAmount,\r\n            uint256 rFee,\r\n            uint256 tTransferAmount,\r\n            uint256 tFee,\r\n            uint256 tServiceFee,\r\n            uint256 tBurn\r\n        ) = _getValues(tAmount, isPayment);\r\n        _rOwned[sender] = _rOwned[sender].sub(rAmount);\r\n        _rOwned[recipient] = _rOwned[recipient].add(rTransferAmount);\r\n        if (isPayment) _takeServiceFee(tServiceFee, tBurn);\r\n        _reflectFee(rFee, tFee);\r\n        emit Transfer(sender, recipient, tTransferAmount);\r\n    }\r\n\r\n    function _takeServiceFee(uint256 tServiceFee, uint256 tBurn) private {\r\n        uint256 currentRate = _getRate();\r\n        uint256 rServiceFee = tServiceFee.mul(currentRate);\r\n        uint256 rBurn = tBurn.mul(currentRate);\r\n        _rOwned[_serviceFeeCollector] = _rOwned[_serviceFeeCollector].add(\r\n            rServiceFee\r\n        );\r\n        emit Transfer(_msgSender(), _serviceFeeCollector, tServiceFee);\r\n        _rOwned[address(0)] = _rOwned[address(0)].add(rBurn);\r\n        emit Transfer(_msgSender(), address(0), tBurn);\r\n    }\r\n\r\n    function _takeServiceFeeCustom(\r\n        uint256 tServiceFee,\r\n        uint256 tBurn,\r\n        address svcFeeBneficiary\r\n    ) private {\r\n        uint256 currentRate = _getRate();\r\n        uint256 rServiceFee = tServiceFee.mul(currentRate);\r\n        uint256 rBurn = tBurn.mul(currentRate);\r\n        _rOwned[svcFeeBneficiary] = _rOwned[svcFeeBneficiary].add(rServiceFee);\r\n        emit Transfer(_msgSender(), svcFeeBneficiary, tServiceFee);\r\n        _rOwned[address(0)] = _rOwned[address(0)].add(rBurn);\r\n        emit Transfer(_msgSender(), address(0), tBurn);\r\n    }\r\n\r\n    function _reflectFee(uint256 rFee, uint256 tFee) private {\r\n        _rTotal = _rTotal.sub(rFee);\r\n        _tFeeTotal = _tFeeTotal.add(tFee);\r\n    }\r\n\r\n    function _approve(\r\n        address owner,\r\n        address spender,\r\n        uint256 amount\r\n    ) internal virtual {\r\n        require(owner != address(0), \"ERC20: approve from the zero address\");\r\n        require(spender != address(0), \"ERC20: approve to the zero address\");\r\n\r\n        _allowances[owner][spender] = amount;\r\n        emit Approval(owner, spender, amount);\r\n    }\r\n\r\n    function _getRate() private view returns (uint256) {\r\n        (uint256 rSupply, uint256 tSupply) = _getCurrentSupply();\r\n        return rSupply.div(tSupply);\r\n    }\r\n\r\n    function _getCurrentSupply() private view returns (uint256, uint256) {\r\n        uint256 rSupply = _rTotal;\r\n        uint256 tSupply = _tTotal;\r\n        if (rSupply < _rTotal.div(_tTotal)) return (_rTotal, _tTotal);\r\n        return (rSupply, tSupply);\r\n    }\r\n}\r\n",
  "sourcePath": "C:\\git\\freelance\\whale-network\\contracts\\WhaleNetwork.sol",
  "compiler": {
    "name": "solc",
    "version": "0.8.0+commit.c7dfd78e.Emscripten.clang"
  },
  "schemaVersion": "3.4.3",
  "updatedAt": "2021-10-17T15:09:19.516Z",
  "networkType": "ethereum",
  "devdoc": {
    "kind": "dev",
    "methods": {
      "allowance(address,address)": {
        "details": "Returns the remaining number of tokens that `spender` will be allowed to spend on behalf of `owner` through {transferFrom}. This is zero by default. This value changes when {approve} or {transferFrom} are called."
      },
      "approve(address,uint256)": {
        "details": "Sets `amount` as the allowance of `spender` over the caller's tokens. Returns a boolean value indicating whether the operation succeeded. IMPORTANT: Beware that changing an allowance with this method brings the risk that someone may use both the old and the new allowance by unfortunate transaction ordering. One possible solution to mitigate this race condition is to first reduce the spender's allowance to 0 and set the desired value afterwards: https://github.com/ethereum/EIPs/issues/20#issuecomment-263524729 Emits an {Approval} event."
      },
      "balanceOf(address)": {
        "details": "Returns the amount of tokens owned by `account`."
      },
      "decimals()": {
        "details": "Returns the decimals places of the token."
      },
      "name()": {
        "details": "Returns the name of the token."
      },
      "symbol()": {
        "details": "Returns the symbol of the token."
      },
      "totalSupply()": {
        "details": "Returns the amount of tokens in existence."
      },
      "transfer(address,uint256)": {
        "details": "Moves `amount` tokens from the caller's account to `recipient`. Returns a boolean value indicating whether the operation succeeded. Emits a {Transfer} event."
      },
      "transferFrom(address,address,uint256)": {
        "details": "Moves `amount` tokens from `sender` to `recipient` using the allowance mechanism. `amount` is then deducted from the caller's allowance. Returns a boolean value indicating whether the operation succeeded. Emits a {Transfer} event."
      }
    },
    "version": 1
  },
  "userdoc": {
    "kind": "user",
    "methods": {},
    "version": 1
  }
}