{
  "contractName": "WhaleNetworkPartner",
  "abi": [
    {
      "inputs": [
        {
          "internalType": "contract IERC20",
          "name": "token",
          "type": "address"
        }
      ],
      "stateMutability": "nonpayable",
      "type": "constructor"
    },
    {
      "anonymous": false,
      "inputs": [
        {
          "indexed": true,
          "internalType": "address",
          "name": "previousOwner",
          "type": "address"
        },
        {
          "indexed": true,
          "internalType": "address",
          "name": "newOwner",
          "type": "address"
        }
      ],
      "name": "OwnershipTransferred",
      "type": "event"
    },
    {
      "inputs": [],
      "name": "owner",
      "outputs": [
        {
          "internalType": "address",
          "name": "",
          "type": "address"
        }
      ],
      "stateMutability": "view",
      "type": "function",
      "constant": true
    },
    {
      "inputs": [],
      "name": "renounceOwnership",
      "outputs": [],
      "stateMutability": "nonpayable",
      "type": "function"
    },
    {
      "inputs": [
        {
          "internalType": "address",
          "name": "newOwner",
          "type": "address"
        }
      ],
      "name": "transferOwnership",
      "outputs": [],
      "stateMutability": "nonpayable",
      "type": "function"
    },
    {
      "inputs": [],
      "name": "taxFee",
      "outputs": [
        {
          "internalType": "uint256",
          "name": "",
          "type": "uint256"
        }
      ],
      "stateMutability": "view",
      "type": "function",
      "constant": true
    },
    {
      "inputs": [],
      "name": "burnFee",
      "outputs": [
        {
          "internalType": "uint256",
          "name": "",
          "type": "uint256"
        }
      ],
      "stateMutability": "view",
      "type": "function",
      "constant": true
    },
    {
      "inputs": [],
      "name": "serviceFee",
      "outputs": [
        {
          "internalType": "uint256",
          "name": "",
          "type": "uint256"
        }
      ],
      "stateMutability": "view",
      "type": "function",
      "constant": true
    },
    {
      "inputs": [],
      "name": "partnerShare",
      "outputs": [
        {
          "internalType": "uint256",
          "name": "",
          "type": "uint256"
        }
      ],
      "stateMutability": "view",
      "type": "function",
      "constant": true
    },
    {
      "inputs": [],
      "name": "partnerAddress",
      "outputs": [
        {
          "internalType": "address",
          "name": "",
          "type": "address"
        }
      ],
      "stateMutability": "view",
      "type": "function",
      "constant": true
    },
    {
      "inputs": [],
      "name": "tokenAddress",
      "outputs": [
        {
          "internalType": "address",
          "name": "",
          "type": "address"
        }
      ],
      "stateMutability": "view",
      "type": "function",
      "constant": true
    },
    {
      "inputs": [
        {
          "internalType": "uint256",
          "name": "tax",
          "type": "uint256"
        },
        {
          "internalType": "uint256",
          "name": "burn",
          "type": "uint256"
        },
        {
          "internalType": "uint256",
          "name": "service",
          "type": "uint256"
        },
        {
          "internalType": "uint256",
          "name": "partner",
          "type": "uint256"
        },
        {
          "internalType": "address",
          "name": "partnerAddr",
          "type": "address"
        }
      ],
      "name": "init",
      "outputs": [
        {
          "internalType": "bool",
          "name": "",
          "type": "bool"
        }
      ],
      "stateMutability": "nonpayable",
      "type": "function"
    },
    {
      "inputs": [],
      "name": "withdrawFunds",
      "outputs": [
        {
          "internalType": "uint256",
          "name": "",
          "type": "uint256"
        },
        {
          "internalType": "uint256",
          "name": "",
          "type": "uint256"
        }
      ],
      "stateMutability": "nonpayable",
      "type": "function"
    },
    {
      "inputs": [],
      "name": "estimateWithdraw",
      "outputs": [
        {
          "internalType": "uint256",
          "name": "",
          "type": "uint256"
        },
        {
          "internalType": "uint256",
          "name": "",
          "type": "uint256"
        }
      ],
      "stateMutability": "view",
      "type": "function",
      "constant": true
    }
  ],
  "bytecode": "0x60806040526000600660146101000a81548160ff0219169083151502179055503480156200002c57600080fd5b506040516200192938038062001929833981810160405281019062000052919062000210565b62000072620000666200012d60201b60201c565b6200013560201b60201c565b600073ffffffffffffffffffffffffffffffffffffffff168173ffffffffffffffffffffffffffffffffffffffff161415620000e5576040517f08c379a0000000000000000000000000000000000000000000000000000000008152600401620000dc90620002a4565b60405180910390fd5b80600160006101000a81548173ffffffffffffffffffffffffffffffffffffffff021916908373ffffffffffffffffffffffffffffffffffffffff1602179055505062000339565b600033905090565b60008060009054906101000a900473ffffffffffffffffffffffffffffffffffffffff169050816000806101000a81548173ffffffffffffffffffffffffffffffffffffffff021916908373ffffffffffffffffffffffffffffffffffffffff1602179055508173ffffffffffffffffffffffffffffffffffffffff168173ffffffffffffffffffffffffffffffffffffffff167f8be0079c531659141344cd1fd0a4f28419497f9722a3daafe3b4186f6b6457e060405160405180910390a35050565b6000815190506200020a816200031f565b92915050565b6000602082840312156200022357600080fd5b60006200023384828501620001f9565b91505092915050565b60006200024b603a83620002c6565b91507f5768616c654e6574776f726b506172746e65723a20546f6b656e20616464726560008301527f73732063616e206e6f74206265207a65726f20616464726573730000000000006020830152604082019050919050565b60006020820190508181036000830152620002bf816200023c565b9050919050565b600082825260208201905092915050565b6000620002e482620002ff565b9050919050565b6000620002f882620002d7565b9050919050565b600073ffffffffffffffffffffffffffffffffffffffff82169050919050565b6200032a81620002eb565b81146200033657600080fd5b50565b6115e080620003496000396000f3fe608060405234801561001057600080fd5b50600436106100b45760003560e01c80638da5cb5b116100715780638da5cb5b1461015b5780639d76ea5814610179578063a071dcf414610197578063f2fde38b146101b5578063fa6158b6146101d1578063fce589d814610201576100b4565b806324600fc3146100b9578063576168fc146100d857806360c2c800146100f657806367b8a7d614610115578063715018a6146101335780638abdf5aa1461013d575b600080fd5b6100c161021f565b6040516100cf929190611377565b60405180910390f35b6100e0610671565b6040516100ed919061123b565b60405180910390f35b6100fe61069b565b60405161010c929190611377565b60405180910390f35b61011d610893565b60405161012a919061135c565b60405180910390f35b61013b61089d565b005b610145610925565b604051610152919061135c565b60405180910390f35b61016361092f565b604051610170919061123b565b60405180910390f35b610181610958565b60405161018e919061123b565b60405180910390f35b61019f610982565b6040516101ac919061135c565b60405180910390f35b6101cf60048036038101906101ca9190610ee5565b61098c565b005b6101eb60048036038101906101e69190610f60565b610a84565b6040516101f8919061127f565b60405180910390f35b610209610be5565b604051610216919061135c565b60405180910390f35b60008061022a61092f565b73ffffffffffffffffffffffffffffffffffffffff16610248610bef565b73ffffffffffffffffffffffffffffffffffffffff1614806102be5750600660009054906101000a900473ffffffffffffffffffffffffffffffffffffffff1673ffffffffffffffffffffffffffffffffffffffff166102a6610bef565b73ffffffffffffffffffffffffffffffffffffffff16145b6102fd576040517f08c379a00000000000000000000000000000000000000000000000000000000081526004016102f4906112bc565b60405180910390fd5b6000600160009054906101000a900473ffffffffffffffffffffffffffffffffffffffff1673ffffffffffffffffffffffffffffffffffffffff166370a08231306040518263ffffffff1660e01b815260040161035a919061123b565b60206040518083038186803b15801561037257600080fd5b505afa158015610386573d6000803e3d6000fd5b505050506040513d601f19601f820116820180604052508101906103aa9190610f37565b9050600160009054906101000a900473ffffffffffffffffffffffffffffffffffffffff1673ffffffffffffffffffffffffffffffffffffffff1663a9059cbb600660009054906101000a900473ffffffffffffffffffffffffffffffffffffffff16610435600554610427606487610bf790919063ffffffff16565b610c4190919063ffffffff16565b6040518363ffffffff1660e01b8152600401610452929190611256565b602060405180830381600087803b15801561046c57600080fd5b505af1158015610480573d6000803e3d6000fd5b505050506040513d601f19601f820116820180604052508101906104a49190610f0e565b50600160009054906101000a900473ffffffffffffffffffffffffffffffffffffffff1673ffffffffffffffffffffffffffffffffffffffff1663a9059cbb6104eb61092f565b600160009054906101000a900473ffffffffffffffffffffffffffffffffffffffff1673ffffffffffffffffffffffffffffffffffffffff166370a08231306040518263ffffffff1660e01b8152600401610546919061123b565b60206040518083038186803b15801561055e57600080fd5b505afa158015610572573d6000803e3d6000fd5b505050506040513d601f19601f820116820180604052508101906105969190610f37565b6040518363ffffffff1660e01b81526004016105b3929190611256565b602060405180830381600087803b1580156105cd57600080fd5b505af11580156105e1573d6000803e3d6000fd5b505050506040513d601f19601f820116820180604052508101906106059190610f0e565b5061062e600554610620606484610bf790919063ffffffff16565b610c4190919063ffffffff16565b61066861065960055461064b606486610bf790919063ffffffff16565b610c4190919063ffffffff16565b83610cbc90919063ffffffff16565b92509250509091565b6000600660009054906101000a900473ffffffffffffffffffffffffffffffffffffffff16905090565b6000806106a661092f565b73ffffffffffffffffffffffffffffffffffffffff166106c4610bef565b73ffffffffffffffffffffffffffffffffffffffff16148061073a5750600660009054906101000a900473ffffffffffffffffffffffffffffffffffffffff1673ffffffffffffffffffffffffffffffffffffffff16610722610bef565b73ffffffffffffffffffffffffffffffffffffffff16145b610779576040517f08c379a0000000000000000000000000000000000000000000000000000000008152600401610770906112bc565b60405180910390fd5b6000600160009054906101000a900473ffffffffffffffffffffffffffffffffffffffff1673ffffffffffffffffffffffffffffffffffffffff166370a08231306040518263ffffffff1660e01b81526004016107d6919061123b565b60206040518083038186803b1580156107ee57600080fd5b505afa158015610802573d6000803e3d6000fd5b505050506040513d601f19601f820116820180604052508101906108269190610f37565b9050610850600554610842606484610bf790919063ffffffff16565b610c4190919063ffffffff16565b61088a61087b60055461086d606486610bf790919063ffffffff16565b610c4190919063ffffffff16565b83610cbc90919063ffffffff16565b92509250509091565b6000600554905090565b6108a5610bef565b73ffffffffffffffffffffffffffffffffffffffff166108c361092f565b73ffffffffffffffffffffffffffffffffffffffff1614610919576040517f08c379a00000000000000000000000000000000000000000000000000000000081526004016109109061131c565b60405180910390fd5b6109236000610d06565b565b6000600454905090565b60008060009054906101000a900473ffffffffffffffffffffffffffffffffffffffff16905090565b6000600160009054906101000a900473ffffffffffffffffffffffffffffffffffffffff16905090565b6000600254905090565b610994610bef565b73ffffffffffffffffffffffffffffffffffffffff166109b261092f565b73ffffffffffffffffffffffffffffffffffffffff1614610a08576040517f08c379a00000000000000000000000000000000000000000000000000000000081526004016109ff9061131c565b60405180910390fd5b600073ffffffffffffffffffffffffffffffffffffffff168173ffffffffffffffffffffffffffffffffffffffff161415610a78576040517f08c379a0000000000000000000000000000000000000000000000000000000008152600401610a6f906112dc565b60405180910390fd5b610a8181610d06565b50565b6000610a8e610bef565b73ffffffffffffffffffffffffffffffffffffffff16610aac61092f565b73ffffffffffffffffffffffffffffffffffffffff1614610b02576040517f08c379a0000000000000000000000000000000000000000000000000000000008152600401610af99061131c565b60405180910390fd5b600660149054906101000a900460ff1615610b52576040517f08c379a0000000000000000000000000000000000000000000000000000000008152600401610b499061133c565b60405180910390fd5b8560028190555084600381905550836004819055508260058190555081600660006101000a81548173ffffffffffffffffffffffffffffffffffffffff021916908373ffffffffffffffffffffffffffffffffffffffff1602179055506001600660146101000a81548160ff021916908315150217905550600660149054906101000a900460ff16905095945050505050565b6000600354905090565b600033905090565b6000610c3983836040518060400160405280601a81526020017f536166654d6174683a206469766973696f6e206279207a65726f000000000000815250610dca565b905092915050565b600080831415610c545760009050610cb6565b60008284610c6291906113ed565b9050828482610c7191906113bc565b14610cb1576040517f08c379a0000000000000000000000000000000000000000000000000000000008152600401610ca8906112fc565b60405180910390fd5b809150505b92915050565b6000610cfe83836040518060400160405280601e81526020017f536166654d6174683a207375627472616374696f6e206f766572666c6f770000815250610e2d565b905092915050565b60008060009054906101000a900473ffffffffffffffffffffffffffffffffffffffff169050816000806101000a81548173ffffffffffffffffffffffffffffffffffffffff021916908373ffffffffffffffffffffffffffffffffffffffff1602179055508173ffffffffffffffffffffffffffffffffffffffff168173ffffffffffffffffffffffffffffffffffffffff167f8be0079c531659141344cd1fd0a4f28419497f9722a3daafe3b4186f6b6457e060405160405180910390a35050565b60008083118290610e11576040517f08c379a0000000000000000000000000000000000000000000000000000000008152600401610e08919061129a565b60405180910390fd5b5060008385610e2091906113bc565b9050809150509392505050565b6000838311158290610e75576040517f08c379a0000000000000000000000000000000000000000000000000000000008152600401610e6c919061129a565b60405180910390fd5b5060008385610e849190611447565b9050809150509392505050565b600081359050610ea081611565565b92915050565b600081519050610eb58161157c565b92915050565b600081359050610eca81611593565b92915050565b600081519050610edf81611593565b92915050565b600060208284031215610ef757600080fd5b6000610f0584828501610e91565b91505092915050565b600060208284031215610f2057600080fd5b6000610f2e84828501610ea6565b91505092915050565b600060208284031215610f4957600080fd5b6000610f5784828501610ed0565b91505092915050565b600080600080600060a08688031215610f7857600080fd5b6000610f8688828901610ebb565b9550506020610f9788828901610ebb565b9450506040610fa888828901610ebb565b9350506060610fb988828901610ebb565b9250506080610fca88828901610e91565b9150509295509295909350565b610fe08161147b565b82525050565b610fef8161148d565b82525050565b6000611000826113a0565b61100a81856113ab565b935061101a8185602086016114c3565b61102381611554565b840191505092915050565b600061103b6052836113ab565b91507f5768616c654e6574776f726b506172746e65723a204f6e6c792074686520636f60008301527f6e7472616374206f776e6572206f722074686520706172746e65722063616e2060208301527f7769746864726177207468652066756e647300000000000000000000000000006040830152606082019050919050565b60006110c76026836113ab565b91507f4f776e61626c653a206e6577206f776e657220697320746865207a65726f206160008301527f64647265737300000000000000000000000000000000000000000000000000006020830152604082019050919050565b600061112d6021836113ab565b91507f536166654d6174683a206d756c7469706c69636174696f6e206f766572666c6f60008301527f77000000000000000000000000000000000000000000000000000000000000006020830152604082019050919050565b60006111936020836113ab565b91507f4f776e61626c653a2063616c6c6572206973206e6f7420746865206f776e65726000830152602082019050919050565b60006111d36035836113ab565b91507f5768616c654e6574776f726b506172746e65723a20436f6e747261637420697360008301527f20616c726561647920696e697469616c697a65642e00000000000000000000006020830152604082019050919050565b611235816114b9565b82525050565b60006020820190506112506000830184610fd7565b92915050565b600060408201905061126b6000830185610fd7565b611278602083018461122c565b9392505050565b60006020820190506112946000830184610fe6565b92915050565b600060208201905081810360008301526112b48184610ff5565b905092915050565b600060208201905081810360008301526112d58161102e565b9050919050565b600060208201905081810360008301526112f5816110ba565b9050919050565b6000602082019050818103600083015261131581611120565b9050919050565b6000602082019050818103600083015261133581611186565b9050919050565b60006020820190508181036000830152611355816111c6565b9050919050565b6000602082019050611371600083018461122c565b92915050565b600060408201905061138c600083018561122c565b611399602083018461122c565b9392505050565b600081519050919050565b600082825260208201905092915050565b60006113c7826114b9565b91506113d2836114b9565b9250826113e2576113e1611525565b5b828204905092915050565b60006113f8826114b9565b9150611403836114b9565b9250817fffffffffffffffffffffffffffffffffffffffffffffffffffffffffffffffff048311821515161561143c5761143b6114f6565b5b828202905092915050565b6000611452826114b9565b915061145d836114b9565b9250828210156114705761146f6114f6565b5b828203905092915050565b600061148682611499565b9050919050565b60008115159050919050565b600073ffffffffffffffffffffffffffffffffffffffff82169050919050565b6000819050919050565b60005b838110156114e15780820151818401526020810190506114c6565b838111156114f0576000848401525b50505050565b7f4e487b7100000000000000000000000000000000000000000000000000000000600052601160045260246000fd5b7f4e487b7100000000000000000000000000000000000000000000000000000000600052601260045260246000fd5b6000601f19601f8301169050919050565b61156e8161147b565b811461157957600080fd5b50565b6115858161148d565b811461159057600080fd5b50565b61159c816114b9565b81146115a757600080fd5b5056fea264697066735822122031e5d84bf0bd0234c1f0792e9e65ab6b5e8b826f0a8ede157f310fff8d818d5764736f6c63430008000033",
  "immutableReferences": {},
  "source": "// SPDX-License-Identifier: MIT\r\n\r\npragma solidity ^0.8.0;\r\n\r\nlibrary SafeMath {\r\n    function add(uint256 a, uint256 b) internal pure returns (uint256) {\r\n        uint256 c = a + b;\r\n        require(c >= a, \"SafeMath: addition overflow\");\r\n\r\n        return c;\r\n    }\r\n\r\n    function sub(uint256 a, uint256 b) internal pure returns (uint256) {\r\n        return sub(a, b, \"SafeMath: subtraction overflow\");\r\n    }\r\n\r\n    function sub(\r\n        uint256 a,\r\n        uint256 b,\r\n        string memory errorMessage\r\n    ) internal pure returns (uint256) {\r\n        require(b <= a, errorMessage);\r\n        uint256 c = a - b;\r\n\r\n        return c;\r\n    }\r\n\r\n    function mul(uint256 a, uint256 b) internal pure returns (uint256) {\r\n        // Gas optimization: this is cheaper than requiring 'a' not being zero, but the\r\n        // benefit is lost if 'b' is also tested.\r\n        // See: https://github.com/OpenZeppelin/openzeppelin-contracts/pull/522\r\n        if (a == 0) {\r\n            return 0;\r\n        }\r\n\r\n        uint256 c = a * b;\r\n        require(c / a == b, \"SafeMath: multiplication overflow\");\r\n\r\n        return c;\r\n    }\r\n\r\n    function div(uint256 a, uint256 b) internal pure returns (uint256) {\r\n        return div(a, b, \"SafeMath: division by zero\");\r\n    }\r\n\r\n    function div(\r\n        uint256 a,\r\n        uint256 b,\r\n        string memory errorMessage\r\n    ) internal pure returns (uint256) {\r\n        require(b > 0, errorMessage);\r\n        uint256 c = a / b;\r\n        // assert(a == b * c + a % b); // There is no case in which this doesn't hold\r\n\r\n        return c;\r\n    }\r\n\r\n    function mod(uint256 a, uint256 b) internal pure returns (uint256) {\r\n        return mod(a, b, \"SafeMath: modulo by zero\");\r\n    }\r\n\r\n    function mod(\r\n        uint256 a,\r\n        uint256 b,\r\n        string memory errorMessage\r\n    ) internal pure returns (uint256) {\r\n        require(b != 0, errorMessage);\r\n        return a % b;\r\n    }\r\n}\r\n\r\ninterface IERC20 {\r\n    /**\r\n     * @dev Returns the amount of tokens in existence.\r\n     */\r\n    function totalSupply() external view returns (uint256);\r\n\r\n    /**\r\n     * @dev Returns the amount of tokens owned by `account`.\r\n     */\r\n    function balanceOf(address account) external view returns (uint256);\r\n\r\n    /**\r\n     * @dev Moves `amount` tokens from the caller's account to `recipient`.\r\n     *\r\n     * Returns a boolean value indicating whether the operation succeeded.\r\n     *\r\n     * Emits a {Transfer} event.\r\n     */\r\n    function transfer(address recipient, uint256 amount)\r\n        external\r\n        returns (bool);\r\n\r\n    /**\r\n     * @dev Returns the remaining number of tokens that `spender` will be\r\n     * allowed to spend on behalf of `owner` through {transferFrom}. This is\r\n     * zero by default.\r\n     *\r\n     * This value changes when {approve} or {transferFrom} are called.\r\n     */\r\n    function allowance(address owner, address spender)\r\n        external\r\n        view\r\n        returns (uint256);\r\n\r\n    /**\r\n     * @dev Sets `amount` as the allowance of `spender` over the caller's tokens.\r\n     *\r\n     * Returns a boolean value indicating whether the operation succeeded.\r\n     *\r\n     * IMPORTANT: Beware that changing an allowance with this method brings the risk\r\n     * that someone may use both the old and the new allowance by unfortunate\r\n     * transaction ordering. One possible solution to mitigate this race\r\n     * condition is to first reduce the spender's allowance to 0 and set the\r\n     * desired value afterwards:\r\n     * https://github.com/ethereum/EIPs/issues/20#issuecomment-263524729\r\n     *\r\n     * Emits an {Approval} event.\r\n     */\r\n    function approve(address spender, uint256 amount) external returns (bool);\r\n\r\n    /**\r\n     * @dev Moves `amount` tokens from `sender` to `recipient` using the\r\n     * allowance mechanism. `amount` is then deducted from the caller's\r\n     * allowance.\r\n     *\r\n     * Returns a boolean value indicating whether the operation succeeded.\r\n     *\r\n     * Emits a {Transfer} event.\r\n     */\r\n    function transferFrom(\r\n        address sender,\r\n        address recipient,\r\n        uint256 amount\r\n    ) external returns (bool);\r\n\r\n    /**\r\n     * @dev Emitted when `value` tokens are moved from one account (`from`) to\r\n     * another (`to`).\r\n     *\r\n     * Note that `value` may be zero.\r\n     */\r\n    event Transfer(address indexed from, address indexed to, uint256 value);\r\n\r\n    /**\r\n     * @dev Emitted when the allowance of a `spender` for an `owner` is set by\r\n     * a call to {approve}. `value` is the new allowance.\r\n     */\r\n    event Approval(\r\n        address indexed owner,\r\n        address indexed spender,\r\n        uint256 value\r\n    );\r\n}\r\n\r\nabstract contract Context {\r\n    function _msgSender() internal view virtual returns (address) {\r\n        return msg.sender;\r\n    }\r\n\r\n    function _msgData() internal view virtual returns (bytes calldata) {\r\n        return msg.data;\r\n    }\r\n}\r\n\r\nabstract contract Ownable is Context {\r\n    address private _owner;\r\n\r\n    event OwnershipTransferred(address indexed previousOwner, address indexed newOwner);\r\n\r\n    constructor() {\r\n        _setOwner(_msgSender());\r\n    }\r\n\r\n    \r\n    function owner() public view virtual returns (address) {\r\n        return _owner;\r\n    }\r\n\r\n    \r\n    modifier onlyOwner() {\r\n        require(owner() == _msgSender(), \"Ownable: caller is not the owner\");\r\n        _;\r\n    }\r\n\r\n    function renounceOwnership() public virtual onlyOwner {\r\n        _setOwner(address(0));\r\n    }\r\n\r\n    \r\n    function transferOwnership(address newOwner) public virtual onlyOwner {\r\n        require(newOwner != address(0), \"Ownable: new owner is the zero address\");\r\n        _setOwner(newOwner);\r\n    }\r\n\r\n    function _setOwner(address newOwner) private {\r\n        address oldOwner = _owner;\r\n        _owner = newOwner;\r\n        emit OwnershipTransferred(oldOwner, newOwner);\r\n    }\r\n}\r\n\r\ncontract WhaleNetworkPartner is Context, Ownable {\r\n    using SafeMath for uint256;\r\n\r\n    IERC20 private _token;\r\n    uint256 private _taxFee;\r\n    uint256 private _burnFee;\r\n    uint256 private _serviceFee;\r\n    uint256 private _partnerShare;\r\n    address private _partnerAddress;\r\n    bool private _isInitialized = false;\r\n\r\n    modifier onlyPartners() {\r\n        require(_msgSender() == owner() || _msgSender() == _partnerAddress, \"WhaleNetworkPartner: Only the contract owner or the partner can withdraw the funds\");\r\n        _;\r\n    }\r\n\r\n    constructor(IERC20 token) {\r\n        require(address(token) != address(0), \"WhaleNetworkPartner: Token address can not be zero address\");\r\n        _token = token;\r\n    }\r\n\r\n    function taxFee() public view returns(uint256){\r\n        return _taxFee;\r\n    }\r\n    function burnFee() public view returns(uint256){\r\n        return _burnFee;\r\n    }\r\n    function serviceFee() public view returns(uint256){\r\n        return _serviceFee;\r\n    }\r\n    function partnerShare() public view returns(uint256){\r\n        return _partnerShare;\r\n    }\r\n    function partnerAddress() public view returns(address){\r\n        return _partnerAddress;\r\n    }\r\n    function tokenAddress() public view returns(address){\r\n        return address(_token);\r\n    }\r\n    function init(uint256 tax, uint256 burn, uint256 service, uint256 partner, address partnerAddr) onlyOwner() external returns(bool){\r\n        require(!_isInitialized, \"WhaleNetworkPartner: Contract is already initialized.\");\r\n        _taxFee = tax;\r\n        _burnFee = burn;\r\n        _serviceFee = service;\r\n        _partnerShare = partner;\r\n        _partnerAddress = partnerAddr;\r\n        _isInitialized = true;\r\n        return _isInitialized;\r\n    }\r\n\r\n    function withdrawFunds() external onlyPartners() returns(uint256,uint256) {\r\n        uint256 funds = _token.balanceOf(address(this));\r\n        _token.transfer(_partnerAddress, funds.div(100).mul(_partnerShare));\r\n        _token.transfer(owner(), _token.balanceOf(address(this)));\r\n        return (funds.div(100).mul(_partnerShare), funds.sub(funds.div(100).mul(_partnerShare)));\r\n    }\r\n\r\n    function estimateWithdraw() external view onlyPartners() returns(uint256,uint256) {\r\n        uint256 funds = _token.balanceOf(address(this));\r\n        return (funds.div(100).mul(_partnerShare), funds.sub(funds.div(100).mul(_partnerShare)));\r\n    }\r\n}",
  "sourcePath": "C:\\git\\freelance\\whale-network\\contracts\\WhaleNetworkPartner.sol",
  "compiler": {
    "name": "solc",
    "version": "0.8.0+commit.c7dfd78e.Emscripten.clang"
  },
  "schemaVersion": "3.4.3",
  "updatedAt": "2021-10-17T15:09:19.558Z",
  "networkType": "ethereum",
  "devdoc": {
    "kind": "dev",
    "methods": {},
    "version": 1
  },
  "userdoc": {
    "kind": "user",
    "methods": {},
    "version": 1
  }
}