{
  "contractName": "WhaleNetworkGovernance",
  "abi": [
    {
      "inputs": [
        {
          "internalType": "contract IERC20",
          "name": "token",
          "type": "address"
        },
        {
          "internalType": "uint256",
          "name": "minForVoting",
          "type": "uint256"
        },
        {
          "internalType": "uint256",
          "name": "minForProposal",
          "type": "uint256"
        }
      ],
      "stateMutability": "nonpayable",
      "type": "constructor"
    },
    {
      "anonymous": false,
      "inputs": [
        {
          "indexed": true,
          "internalType": "address",
          "name": "previousOwner",
          "type": "address"
        },
        {
          "indexed": true,
          "internalType": "address",
          "name": "newOwner",
          "type": "address"
        }
      ],
      "name": "OwnershipTransferred",
      "type": "event"
    },
    {
      "anonymous": false,
      "inputs": [
        {
          "indexed": true,
          "internalType": "address",
          "name": "creatorAddress",
          "type": "address"
        },
        {
          "indexed": false,
          "internalType": "string",
          "name": "title",
          "type": "string"
        }
      ],
      "name": "ProposalCreated",
      "type": "event"
    },
    {
      "anonymous": false,
      "inputs": [
        {
          "indexed": false,
          "internalType": "uint256",
          "name": "proposalId",
          "type": "uint256"
        }
      ],
      "name": "ProposalExecuted",
      "type": "event"
    },
    {
      "anonymous": false,
      "inputs": [
        {
          "indexed": false,
          "internalType": "uint256",
          "name": "proposalId",
          "type": "uint256"
        }
      ],
      "name": "ProposalForfeited",
      "type": "event"
    },
    {
      "anonymous": false,
      "inputs": [
        {
          "indexed": true,
          "internalType": "address",
          "name": "voter",
          "type": "address"
        },
        {
          "indexed": false,
          "internalType": "uint256",
          "name": "weight",
          "type": "uint256"
        },
        {
          "indexed": false,
          "internalType": "enum WhaleNetworkGovernance.Vote",
          "name": "status",
          "type": "uint8"
        }
      ],
      "name": "VoteCast",
      "type": "event"
    },
    {
      "inputs": [],
      "name": "_nextProposalId",
      "outputs": [
        {
          "internalType": "uint256",
          "name": "",
          "type": "uint256"
        }
      ],
      "stateMutability": "view",
      "type": "function",
      "constant": true
    },
    {
      "inputs": [],
      "name": "_token",
      "outputs": [
        {
          "internalType": "contract IERC20",
          "name": "",
          "type": "address"
        }
      ],
      "stateMutability": "view",
      "type": "function",
      "constant": true
    },
    {
      "inputs": [],
      "name": "owner",
      "outputs": [
        {
          "internalType": "address",
          "name": "",
          "type": "address"
        }
      ],
      "stateMutability": "view",
      "type": "function",
      "constant": true
    },
    {
      "inputs": [],
      "name": "renounceOwnership",
      "outputs": [],
      "stateMutability": "nonpayable",
      "type": "function"
    },
    {
      "inputs": [
        {
          "internalType": "address",
          "name": "newOwner",
          "type": "address"
        }
      ],
      "name": "transferOwnership",
      "outputs": [],
      "stateMutability": "nonpayable",
      "type": "function"
    },
    {
      "inputs": [],
      "name": "minimumTokenRequiredVoting",
      "outputs": [
        {
          "internalType": "uint256",
          "name": "",
          "type": "uint256"
        }
      ],
      "stateMutability": "view",
      "type": "function",
      "constant": true
    },
    {
      "inputs": [],
      "name": "minimumTokenRequiredProposal",
      "outputs": [
        {
          "internalType": "uint256",
          "name": "",
          "type": "uint256"
        }
      ],
      "stateMutability": "view",
      "type": "function",
      "constant": true
    },
    {
      "inputs": [
        {
          "internalType": "uint256",
          "name": "amount",
          "type": "uint256"
        }
      ],
      "name": "setMinimumTokenRequiredVoting",
      "outputs": [
        {
          "internalType": "bool",
          "name": "",
          "type": "bool"
        }
      ],
      "stateMutability": "nonpayable",
      "type": "function"
    },
    {
      "inputs": [
        {
          "internalType": "uint256",
          "name": "amount",
          "type": "uint256"
        }
      ],
      "name": "setMinimumTokenRequiredProposal",
      "outputs": [
        {
          "internalType": "bool",
          "name": "",
          "type": "bool"
        }
      ],
      "stateMutability": "nonpayable",
      "type": "function"
    },
    {
      "inputs": [
        {
          "internalType": "string",
          "name": "proposalTitle",
          "type": "string"
        },
        {
          "internalType": "string",
          "name": "proposalDetails",
          "type": "string"
        },
        {
          "internalType": "uint256",
          "name": "start",
          "type": "uint256"
        },
        {
          "internalType": "uint256",
          "name": "end",
          "type": "uint256"
        }
      ],
      "name": "createProposal",
      "outputs": [
        {
          "internalType": "bool",
          "name": "",
          "type": "bool"
        }
      ],
      "stateMutability": "nonpayable",
      "type": "function"
    },
    {
      "inputs": [
        {
          "internalType": "uint256",
          "name": "proposalId",
          "type": "uint256"
        }
      ],
      "name": "getProposal",
      "outputs": [
        {
          "components": [
            {
              "internalType": "string",
              "name": "title",
              "type": "string"
            },
            {
              "internalType": "string",
              "name": "details",
              "type": "string"
            },
            {
              "internalType": "address",
              "name": "creator",
              "type": "address"
            },
            {
              "internalType": "uint256",
              "name": "startBlock",
              "type": "uint256"
            },
            {
              "internalType": "uint256",
              "name": "endBlock",
              "type": "uint256"
            },
            {
              "internalType": "uint256",
              "name": "id",
              "type": "uint256"
            },
            {
              "internalType": "enum WhaleNetworkGovernance.ProposalStatus",
              "name": "status",
              "type": "uint8"
            }
          ],
          "internalType": "struct WhaleNetworkGovernance.Proposal",
          "name": "",
          "type": "tuple"
        }
      ],
      "stateMutability": "view",
      "type": "function",
      "constant": true
    },
    {
      "inputs": [
        {
          "internalType": "uint256",
          "name": "proposalId",
          "type": "uint256"
        },
        {
          "internalType": "uint256",
          "name": "vote",
          "type": "uint256"
        }
      ],
      "name": "castVote",
      "outputs": [
        {
          "internalType": "bool",
          "name": "",
          "type": "bool"
        }
      ],
      "stateMutability": "nonpayable",
      "type": "function"
    },
    {
      "inputs": [
        {
          "internalType": "address",
          "name": "voter",
          "type": "address"
        },
        {
          "internalType": "uint256",
          "name": "proposalId",
          "type": "uint256"
        }
      ],
      "name": "hasVoted",
      "outputs": [
        {
          "internalType": "bool",
          "name": "",
          "type": "bool"
        }
      ],
      "stateMutability": "view",
      "type": "function",
      "constant": true
    },
    {
      "inputs": [
        {
          "internalType": "uint256",
          "name": "proposalId",
          "type": "uint256"
        }
      ],
      "name": "getResult",
      "outputs": [
        {
          "components": [
            {
              "internalType": "uint256",
              "name": "against",
              "type": "uint256"
            },
            {
              "internalType": "uint256",
              "name": "support",
              "type": "uint256"
            }
          ],
          "internalType": "struct WhaleNetworkGovernance.VoteStatus",
          "name": "",
          "type": "tuple"
        }
      ],
      "stateMutability": "view",
      "type": "function",
      "constant": true
    },
    {
      "inputs": [
        {
          "internalType": "uint256",
          "name": "proposalId",
          "type": "uint256"
        }
      ],
      "name": "isVotingActive",
      "outputs": [
        {
          "internalType": "bool",
          "name": "",
          "type": "bool"
        }
      ],
      "stateMutability": "view",
      "type": "function",
      "constant": true
    },
    {
      "inputs": [
        {
          "internalType": "uint256",
          "name": "proposalId",
          "type": "uint256"
        }
      ],
      "name": "isProposalPassed",
      "outputs": [
        {
          "internalType": "bool",
          "name": "",
          "type": "bool"
        }
      ],
      "stateMutability": "view",
      "type": "function",
      "constant": true
    },
    {
      "inputs": [
        {
          "internalType": "uint256",
          "name": "proposalId",
          "type": "uint256"
        }
      ],
      "name": "executeProposal",
      "outputs": [
        {
          "internalType": "bool",
          "name": "",
          "type": "bool"
        }
      ],
      "stateMutability": "nonpayable",
      "type": "function"
    },
    {
      "inputs": [
        {
          "internalType": "uint256",
          "name": "proposalId",
          "type": "uint256"
        }
      ],
      "name": "forfeitProposal",
      "outputs": [
        {
          "internalType": "bool",
          "name": "",
          "type": "bool"
        }
      ],
      "stateMutability": "nonpayable",
      "type": "function"
    },
    {
      "inputs": [
        {
          "internalType": "uint256",
          "name": "proposalId",
          "type": "uint256"
        }
      ],
      "name": "proposalStartBlock",
      "outputs": [
        {
          "internalType": "uint256",
          "name": "",
          "type": "uint256"
        }
      ],
      "stateMutability": "view",
      "type": "function",
      "constant": true
    },
    {
      "inputs": [
        {
          "internalType": "uint256",
          "name": "proposalId",
          "type": "uint256"
        }
      ],
      "name": "proposalEndBlock",
      "outputs": [
        {
          "internalType": "uint256",
          "name": "",
          "type": "uint256"
        }
      ],
      "stateMutability": "view",
      "type": "function",
      "constant": true
    },
    {
      "inputs": [
        {
          "internalType": "uint256",
          "name": "proposalId",
          "type": "uint256"
        }
      ],
      "name": "getProposalStatus",
      "outputs": [
        {
          "internalType": "enum WhaleNetworkGovernance.ProposalStatus",
          "name": "",
          "type": "uint8"
        }
      ],
      "stateMutability": "view",
      "type": "function",
      "constant": true
    }
  ],
  "bytecode": "0x608060405260016004553480156200001657600080fd5b5060405162004ca138038062004ca183398181016040528101906200003c9190620002d7565b6200005c62000050620001dd60201b60201c565b620001e560201b60201c565b600073ffffffffffffffffffffffffffffffffffffffff168373ffffffffffffffffffffffffffffffffffffffff161415620000cf576040517f08c379a0000000000000000000000000000000000000000000000000000000008152600401620000c690620004d3565b60405180910390fd5b6000821162000115576040517f08c379a00000000000000000000000000000000000000000000000000000000081526004016200010c90620004b1565b60405180910390fd5b600081116200015b576040517f08c379a00000000000000000000000000000000000000000000000000000000081526004016200015290620004f5565b60405180910390fd5b82600160006101000a81548173ffffffffffffffffffffffffffffffffffffffff021916908373ffffffffffffffffffffffffffffffffffffffff160217905550670de0b6b3a764000081620001b2919062000528565b600381905550670de0b6b3a764000082620001ce919062000528565b6002819055505050506200063e565b600033905090565b60008060009054906101000a900473ffffffffffffffffffffffffffffffffffffffff169050816000806101000a81548173ffffffffffffffffffffffffffffffffffffffff021916908373ffffffffffffffffffffffffffffffffffffffff1602179055508173ffffffffffffffffffffffffffffffffffffffff168173ffffffffffffffffffffffffffffffffffffffff167f8be0079c531659141344cd1fd0a4f28419497f9722a3daafe3b4186f6b6457e060405160405180910390a35050565b600081519050620002ba816200060a565b92915050565b600081519050620002d18162000624565b92915050565b600080600060608486031215620002ed57600080fd5b6000620002fd86828701620002a9565b93505060206200031086828701620002c0565b92505060406200032386828701620002c0565b9150509250925092565b60006200033c604c8362000517565b91507f5768616c654e6574776f726b476f7665726e616e63653a204d696e696d756d2060008301527f746f6b656e7320666f7220766f74696e67206d7573742062652067726561746560208301527f72207468656e207a65726f2e00000000000000000000000000000000000000006040830152606082019050919050565b6000620003ca603d8362000517565b91507f5768616c654e6574776f726b476f7665726e616e63653a20546f6b656e20616460008301527f64726573732063616e206e6f74206265207a65726f20616464726573730000006020830152604082019050919050565b60006200043260588362000517565b91507f5768616c654e6574776f726b476f7665726e616e63653a204d696e696d756d2060008301527f746f6b656e7320666f72206372656174696e672070726f706f73616c73206d7560208301527f73742062652067726561746572207468656e207a65726f2e00000000000000006040830152606082019050919050565b60006020820190508181036000830152620004cc816200032d565b9050919050565b60006020820190508181036000830152620004ee81620003bb565b9050919050565b60006020820190508181036000830152620005108162000423565b9050919050565b600082825260208201905092915050565b60006200053582620005d1565b91506200054283620005d1565b9250817fffffffffffffffffffffffffffffffffffffffffffffffffffffffffffffffff04831182151516156200057e576200057d620005db565b5b828202905092915050565b60006200059682620005b1565b9050919050565b6000620005aa8262000589565b9050919050565b600073ffffffffffffffffffffffffffffffffffffffff82169050919050565b6000819050919050565b7f4e487b7100000000000000000000000000000000000000000000000000000000600052601160045260246000fd5b62000615816200059d565b81146200062157600080fd5b50565b6200062f81620005d1565b81146200063b57600080fd5b50565b614653806200064e6000396000f3fe608060405234801561001057600080fd5b50600436106101375760003560e01c8063772744b5116100b8578063c80a5ba61161007c578063c80a5ba6146103c2578063dc697f85146103f2578063ecd0c0c314610422578063f2fde38b14610440578063fdb6bd891461045c578063ff39ebdc1461047a57610137565b8063772744b5146102e45780638da5cb5b14610314578063995e433914610332578063befbfbda14610362578063c7f758a81461039257610137565b806342545825116100ff578063425458251461022c578063472ec2e61461025c5780636b5e17661461027a5780636cd4f6da146102aa578063715018a6146102da57610137565b80630d61b5191461013c5780631684f4551461016c5780632bb803ed1461019c5780632c0a3f89146101cc578063401853b7146101fc575b600080fd5b61015660048036038101906101519190613586565b610498565b6040516101639190613f64565b60405180910390f35b61018660048036038101906101819190613586565b6109b9565b6040516101939190614214565b60405180910390f35b6101b660048036038101906101b19190613586565b610c58565b6040516101c39190613f64565b60405180910390f35b6101e660048036038101906101e191906135d8565b611173565b6040516101f39190613f64565b60405180910390f35b61021660048036038101906102119190613586565b611afe565b6040516102239190613f9a565b60405180910390f35b610246600480360381019061024191906134b7565b611d9d565b6040516102539190613f64565b60405180910390f35b610264611e54565b6040516102719190614214565b60405180910390f35b610294600480360381019061028f91906134f3565b611e5a565b6040516102a19190613f64565b60405180910390f35b6102c460048036038101906102bf9190613586565b612270565b6040516102d19190613f64565b60405180910390f35b6102e2612465565b005b6102fe60048036038101906102f99190613586565b6124ed565b60405161030b9190613f64565b60405180910390f35b61031c6127af565b6040516103299190613f49565b60405180910390f35b61034c60048036038101906103479190613586565b6127d8565b60405161035991906141f9565b60405180910390f35b61037c60048036038101906103779190613586565b612869565b6040516103899190613f64565b60405180910390f35b6103ac60048036038101906103a79190613586565b61293a565b6040516103b991906141d7565b60405180910390f35b6103dc60048036038101906103d79190613586565b612bd6565b6040516103e99190614214565b60405180910390f35b61040c60048036038101906104079190613586565b612e75565b6040516104199190613f64565b60405180910390f35b61042a612f46565b6040516104379190613f7f565b60405180910390f35b61045a6004803603810190610455919061348e565b612f6c565b005b610464613064565b6040516104719190614214565b60405180910390f35b61048261306e565b60405161048f9190614214565b60405180910390f35b60006104a2613078565b73ffffffffffffffffffffffffffffffffffffffff166104c06127af565b73ffffffffffffffffffffffffffffffffffffffff1614610516576040517f08c379a000000000000000000000000000000000000000000000000000000000815260040161050d906140d7565b60405180910390fd5b600082118015610527575060045482105b610566576040517f08c379a000000000000000000000000000000000000000000000000000000000815260040161055d906140b7565b60405180910390fd5b61056f82612270565b6105ae576040517f08c379a00000000000000000000000000000000000000000000000000000000081526004016105a590614097565b60405180910390fd5b6000600560008481526020019081526020016000206040518060e00160405290816000820180546105de90614499565b80601f016020809104026020016040519081016040528092919081815260200182805461060a90614499565b80156106575780601f1061062c57610100808354040283529160200191610657565b820191906000526020600020905b81548152906001019060200180831161063a57829003601f168201915b5050505050815260200160018201805461067090614499565b80601f016020809104026020016040519081016040528092919081815260200182805461069c90614499565b80156106e95780601f106106be576101008083540402835291602001916106e9565b820191906000526020600020905b8154815290600101906020018083116106cc57829003601f168201915b505050505081526020016002820160009054906101000a900473ffffffffffffffffffffffffffffffffffffffff1673ffffffffffffffffffffffffffffffffffffffff1673ffffffffffffffffffffffffffffffffffffffff1681526020016003820154815260200160048201548152602001600582015481526020016006820160009054906101000a900460ff1660028111156107b1577f4e487b7100000000000000000000000000000000000000000000000000000000600052602160045260246000fd5b60028111156107e9577f4e487b7100000000000000000000000000000000000000000000000000000000600052602160045260246000fd5b81525050905060028160c00190600281111561082e577f4e487b7100000000000000000000000000000000000000000000000000000000600052602160045260246000fd5b90816002811115610868577f4e487b7100000000000000000000000000000000000000000000000000000000600052602160045260246000fd5b815250508060056000858152602001908152602001600020600082015181600001908051906020019061089c92919061329f565b5060208201518160010190805190602001906108b992919061329f565b5060408201518160020160006101000a81548173ffffffffffffffffffffffffffffffffffffffff021916908373ffffffffffffffffffffffffffffffffffffffff160217905550606082015181600301556080820151816004015560a0820151816005015560c08201518160060160006101000a81548160ff02191690836002811115610970577f4e487b7100000000000000000000000000000000000000000000000000000000600052602160045260246000fd5b02179055509050507f712ae1383f79ac853f8d882153778e0260ef8f03b504e2866e0593e04d2b291f836040516109a79190614214565b60405180910390a16001915050919050565b600080821180156109cb575060045482105b610a0a576040517f08c379a0000000000000000000000000000000000000000000000000000000008152600401610a01906140b7565b60405180910390fd5b6000600560008481526020019081526020016000206040518060e0016040529081600082018054610a3a90614499565b80601f0160208091040260200160405190810160405280929190818152602001828054610a6690614499565b8015610ab35780601f10610a8857610100808354040283529160200191610ab3565b820191906000526020600020905b815481529060010190602001808311610a9657829003601f168201915b50505050508152602001600182018054610acc90614499565b80601f0160208091040260200160405190810160405280929190818152602001828054610af890614499565b8015610b455780601f10610b1a57610100808354040283529160200191610b45565b820191906000526020600020905b815481529060010190602001808311610b2857829003601f168201915b505050505081526020016002820160009054906101000a900473ffffffffffffffffffffffffffffffffffffffff1673ffffffffffffffffffffffffffffffffffffffff1673ffffffffffffffffffffffffffffffffffffffff1681526020016003820154815260200160048201548152602001600582015481526020016006820160009054906101000a900460ff166002811115610c0d577f4e487b7100000000000000000000000000000000000000000000000000000000600052602160045260246000fd5b6002811115610c45577f4e487b7100000000000000000000000000000000000000000000000000000000600052602160045260246000fd5b8152505090508060800151915050919050565b60008082118015610c6a575060045482105b610ca9576040517f08c379a0000000000000000000000000000000000000000000000000000000008152600401610ca0906140b7565b60405180910390fd5b6000600560008481526020019081526020016000206040518060e0016040529081600082018054610cd990614499565b80601f0160208091040260200160405190810160405280929190818152602001828054610d0590614499565b8015610d525780601f10610d2757610100808354040283529160200191610d52565b820191906000526020600020905b815481529060010190602001808311610d3557829003601f168201915b50505050508152602001600182018054610d6b90614499565b80601f0160208091040260200160405190810160405280929190818152602001828054610d9790614499565b8015610de45780601f10610db957610100808354040283529160200191610de4565b820191906000526020600020905b815481529060010190602001808311610dc757829003601f168201915b505050505081526020016002820160009054906101000a900473ffffffffffffffffffffffffffffffffffffffff1673ffffffffffffffffffffffffffffffffffffffff1673ffffffffffffffffffffffffffffffffffffffff1681526020016003820154815260200160048201548152602001600582015481526020016006820160009054906101000a900460ff166002811115610eac577f4e487b7100000000000000000000000000000000000000000000000000000000600052602160045260246000fd5b6002811115610ee4577f4e487b7100000000000000000000000000000000000000000000000000000000600052602160045260246000fd5b81525050905080606001514310610f30576040517f08c379a0000000000000000000000000000000000000000000000000000000008152600401610f27906141b7565b60405180910390fd5b610f38613078565b73ffffffffffffffffffffffffffffffffffffffff16816040015173ffffffffffffffffffffffffffffffffffffffff1614610fa9576040517f08c379a0000000000000000000000000000000000000000000000000000000008152600401610fa090614077565b60405180910390fd5b60018160c001906002811115610fe8577f4e487b7100000000000000000000000000000000000000000000000000000000600052602160045260246000fd5b90816002811115611022577f4e487b7100000000000000000000000000000000000000000000000000000000600052602160045260246000fd5b815250508060056000858152602001908152602001600020600082015181600001908051906020019061105692919061329f565b50602082015181600101908051906020019061107392919061329f565b5060408201518160020160006101000a81548173ffffffffffffffffffffffffffffffffffffffff021916908373ffffffffffffffffffffffffffffffffffffffff160217905550606082015181600301556080820151816004015560a0820151816005015560c08201518160060160006101000a81548160ff0219169083600281111561112a577f4e487b7100000000000000000000000000000000000000000000000000000000600052602160045260246000fd5b02179055509050507f52087d5b1c5f876745facd10cfef6fd5ad24c81c75a0639815174c3d528808d1836040516111619190614214565b60405180910390a16001915050919050565b6000600254600160009054906101000a900473ffffffffffffffffffffffffffffffffffffffff1673ffffffffffffffffffffffffffffffffffffffff166370a082316111be613078565b6040518263ffffffff1660e01b81526004016111da9190613f49565b60206040518083038186803b1580156111f257600080fd5b505afa158015611206573d6000803e3d6000fd5b505050506040513d601f19601f8201168201806040525081019061122a91906135af565b101561126b576040517f08c379a000000000000000000000000000000000000000000000000000000000815260040161126290614177565b60405180910390fd5b60008311801561127c575060045483105b6112bb576040517f08c379a00000000000000000000000000000000000000000000000000000000081526004016112b2906140b7565b60405180910390fd5b6007600084815260200190815260200160002060006112d8613078565b73ffffffffffffffffffffffffffffffffffffffff1673ffffffffffffffffffffffffffffffffffffffff16815260200190815260200160002060009054906101000a900460ff1615611360576040517f08c379a000000000000000000000000000000000000000000000000000000000815260040161135790613ff7565b60405180910390fd5b60006006600085815260200190815260200160002090506000600560008681526020019081526020016000206040518060e00160405290816000820180546113a790614499565b80601f01602080910402602001604051908101604052809291908181526020018280546113d390614499565b80156114205780601f106113f557610100808354040283529160200191611420565b820191906000526020600020905b81548152906001019060200180831161140357829003601f168201915b5050505050815260200160018201805461143990614499565b80601f016020809104026020016040519081016040528092919081815260200182805461146590614499565b80156114b25780601f10611487576101008083540402835291602001916114b2565b820191906000526020600020905b81548152906001019060200180831161149557829003601f168201915b505050505081526020016002820160009054906101000a900473ffffffffffffffffffffffffffffffffffffffff1673ffffffffffffffffffffffffffffffffffffffff1673ffffffffffffffffffffffffffffffffffffffff1681526020016003820154815260200160048201548152602001600582015481526020016006820160009054906101000a900460ff16600281111561157a577f4e487b7100000000000000000000000000000000000000000000000000000000600052602160045260246000fd5b60028111156115b2577f4e487b7100000000000000000000000000000000000000000000000000000000600052602160045260246000fd5b8152505090508060600151431180156115ce5750806080015143105b61160d576040517f08c379a000000000000000000000000000000000000000000000000000000000815260040161160490614157565b60405180910390fd5b60006002811115611647577f4e487b7100000000000000000000000000000000000000000000000000000000600052602160045260246000fd5b8160c001516002811115611684577f4e487b7100000000000000000000000000000000000000000000000000000000600052602160045260246000fd5b146116c4576040517f08c379a00000000000000000000000000000000000000000000000000000000081526004016116bb90614057565b60405180910390fd5b60016007600087815260200190815260200160002060006116e3613078565b73ffffffffffffffffffffffffffffffffffffffff1673ffffffffffffffffffffffffffffffffffffffff16815260200190815260200160002060006101000a81548160ff021916908315150217905550600184141561191357600160009054906101000a900473ffffffffffffffffffffffffffffffffffffffff1673ffffffffffffffffffffffffffffffffffffffff166370a08231611783613078565b6040518263ffffffff1660e01b815260040161179f9190613f49565b60206040518083038186803b1580156117b757600080fd5b505afa1580156117cb573d6000803e3d6000fd5b505050506040513d601f19601f820116820180604052508101906117ef91906135af565b82600101600082825461180291906142e6565b92505081905550611811613078565b73ffffffffffffffffffffffffffffffffffffffff167f251f168c3d37dca4f3922f4aa12852da0c3de8ef70710e0cf58eba85805168a2600160009054906101000a900473ffffffffffffffffffffffffffffffffffffffff1673ffffffffffffffffffffffffffffffffffffffff166370a0823161188e613078565b6040518263ffffffff1660e01b81526004016118aa9190613f49565b60206040518083038186803b1580156118c257600080fd5b505afa1580156118d6573d6000803e3d6000fd5b505050506040513d601f19601f820116820180604052508101906118fa91906135af565b600160405161190a92919061422f565b60405180910390a25b6000841415611af257600160009054906101000a900473ffffffffffffffffffffffffffffffffffffffff1673ffffffffffffffffffffffffffffffffffffffff166370a08231611962613078565b6040518263ffffffff1660e01b815260040161197e9190613f49565b60206040518083038186803b15801561199657600080fd5b505afa1580156119aa573d6000803e3d6000fd5b505050506040513d601f19601f820116820180604052508101906119ce91906135af565b8260000160008282546119e191906142e6565b925050819055506119f0613078565b73ffffffffffffffffffffffffffffffffffffffff167f251f168c3d37dca4f3922f4aa12852da0c3de8ef70710e0cf58eba85805168a2600160009054906101000a900473ffffffffffffffffffffffffffffffffffffffff1673ffffffffffffffffffffffffffffffffffffffff166370a08231611a6d613078565b6040518263ffffffff1660e01b8152600401611a899190613f49565b60206040518083038186803b158015611aa157600080fd5b505afa158015611ab5573d6000803e3d6000fd5b505050506040513d601f19601f82011682018060405250810190611ad991906135af565b6000604051611ae992919061422f565b60405180910390a25b60019250505092915050565b60008082118015611b10575060045482105b611b4f576040517f08c379a0000000000000000000000000000000000000000000000000000000008152600401611b46906140b7565b60405180910390fd5b6000600560008481526020019081526020016000206040518060e0016040529081600082018054611b7f90614499565b80601f0160208091040260200160405190810160405280929190818152602001828054611bab90614499565b8015611bf85780601f10611bcd57610100808354040283529160200191611bf8565b820191906000526020600020905b815481529060010190602001808311611bdb57829003601f168201915b50505050508152602001600182018054611c1190614499565b80601f0160208091040260200160405190810160405280929190818152602001828054611c3d90614499565b8015611c8a5780601f10611c5f57610100808354040283529160200191611c8a565b820191906000526020600020905b815481529060010190602001808311611c6d57829003601f168201915b505050505081526020016002820160009054906101000a900473ffffffffffffffffffffffffffffffffffffffff1673ffffffffffffffffffffffffffffffffffffffff1673ffffffffffffffffffffffffffffffffffffffff1681526020016003820154815260200160048201548152602001600582015481526020016006820160009054906101000a900460ff166002811115611d52577f4e487b7100000000000000000000000000000000000000000000000000000000600052602160045260246000fd5b6002811115611d8a577f4e487b7100000000000000000000000000000000000000000000000000000000600052602160045260246000fd5b8152505090508060c00151915050919050565b60008082118015611daf575060045482105b611dee576040517f08c379a0000000000000000000000000000000000000000000000000000000008152600401611de5906140b7565b60405180910390fd5b6007600083815260200190815260200160002060008473ffffffffffffffffffffffffffffffffffffffff1673ffffffffffffffffffffffffffffffffffffffff16815260200190815260200160002060009054906101000a900460ff16905092915050565b60045481565b600080855111611e9f576040517f08c379a0000000000000000000000000000000000000000000000000000000008152600401611e9690614197565b60405180910390fd5b6000845111611ee3576040517f08c379a0000000000000000000000000000000000000000000000000000000008152600401611eda90614197565b60405180910390fd5b600354600160009054906101000a900473ffffffffffffffffffffffffffffffffffffffff1673ffffffffffffffffffffffffffffffffffffffff166370a08231611f2c613078565b6040518263ffffffff1660e01b8152600401611f489190613f49565b60206040518083038186803b158015611f6057600080fd5b505afa158015611f74573d6000803e3d6000fd5b505050506040513d601f19601f82011682018060405250810190611f9891906135af565b1015611fd9576040517f08c379a0000000000000000000000000000000000000000000000000000000008152600401611fd0906140f7565b60405180910390fd5b43831161201b576040517f08c379a000000000000000000000000000000000000000000000000000000000815260040161201290614017565b60405180910390fd5b82821161205d576040517f08c379a000000000000000000000000000000000000000000000000000000000815260040161205490614137565b60405180910390fd5b6040518060e0016040528086815260200185815260200161207c613078565b73ffffffffffffffffffffffffffffffffffffffff1681526020018481526020018381526020016004548152602001600060028111156120e5577f4e487b7100000000000000000000000000000000000000000000000000000000600052602160045260246000fd5b815250600560006004548152602001908152602001600020600082015181600001908051906020019061211992919061329f565b50602082015181600101908051906020019061213692919061329f565b5060408201518160020160006101000a81548173ffffffffffffffffffffffffffffffffffffffff021916908373ffffffffffffffffffffffffffffffffffffffff160217905550606082015181600301556080820151816004015560a0820151816005015560c08201518160060160006101000a81548160ff021916908360028111156121ed577f4e487b7100000000000000000000000000000000000000000000000000000000600052602160045260246000fd5b021790555090505060016004600082825461220891906142e6565b92505081905550612217613078565b73ffffffffffffffffffffffffffffffffffffffff167f0a8c8ee7cecd26db26f06dfec052907a771897f47c5e48d32cfddd878b28270f8660405161225c9190613fb5565b60405180910390a260019050949350505050565b60008082118015612282575060045482105b6122c1576040517f08c379a00000000000000000000000000000000000000000000000000000000081526004016122b8906140b7565b60405180910390fd5b60006122cc836127d8565b9050600061242d600160009054906101000a900473ffffffffffffffffffffffffffffffffffffffff1673ffffffffffffffffffffffffffffffffffffffff166370a0823160006040518263ffffffff1660e01b815260040161232f9190613f49565b60206040518083038186803b15801561234757600080fd5b505afa15801561235b573d6000803e3d6000fd5b505050506040513d601f19601f8201168201806040525081019061237f91906135af565b600160009054906101000a900473ffffffffffffffffffffffffffffffffffffffff1673ffffffffffffffffffffffffffffffffffffffff166318160ddd6040518163ffffffff1660e01b815260040160206040518083038186803b1580156123e757600080fd5b505afa1580156123fb573d6000803e3d6000fd5b505050506040513d601f19601f8201168201806040525081019061241f91906135af565b61308090919063ffffffff16565b90506124436002826130ca90919063ffffffff16565b8260200151111561245957600192505050612460565b6000925050505b919050565b61246d613078565b73ffffffffffffffffffffffffffffffffffffffff1661248b6127af565b73ffffffffffffffffffffffffffffffffffffffff16146124e1576040517f08c379a00000000000000000000000000000000000000000000000000000000081526004016124d8906140d7565b60405180910390fd5b6124eb6000613114565b565b600080821180156124ff575060045482105b61253e576040517f08c379a0000000000000000000000000000000000000000000000000000000008152600401612535906140b7565b60405180910390fd5b6000600560008481526020019081526020016000206040518060e001604052908160008201805461256e90614499565b80601f016020809104026020016040519081016040528092919081815260200182805461259a90614499565b80156125e75780601f106125bc576101008083540402835291602001916125e7565b820191906000526020600020905b8154815290600101906020018083116125ca57829003601f168201915b5050505050815260200160018201805461260090614499565b80601f016020809104026020016040519081016040528092919081815260200182805461262c90614499565b80156126795780601f1061264e57610100808354040283529160200191612679565b820191906000526020600020905b81548152906001019060200180831161265c57829003601f168201915b505050505081526020016002820160009054906101000a900473ffffffffffffffffffffffffffffffffffffffff1673ffffffffffffffffffffffffffffffffffffffff1673ffffffffffffffffffffffffffffffffffffffff1681526020016003820154815260200160048201548152602001600582015481526020016006820160009054906101000a900460ff166002811115612741577f4e487b7100000000000000000000000000000000000000000000000000000000600052602160045260246000fd5b6002811115612779577f4e487b7100000000000000000000000000000000000000000000000000000000600052602160045260246000fd5b8152505090508060600151431180156127955750806080015143105b156127a45760019150506127aa565b60009150505b919050565b60008060009054906101000a900473ffffffffffffffffffffffffffffffffffffffff16905090565b6127e0613325565b6000821180156127f1575060045482105b612830576040517f08c379a0000000000000000000000000000000000000000000000000000000008152600401612827906140b7565b60405180910390fd5b60066000838152602001908152602001600020604051806040016040529081600082015481526020016001820154815250509050919050565b6000612873613078565b73ffffffffffffffffffffffffffffffffffffffff166128916127af565b73ffffffffffffffffffffffffffffffffffffffff16146128e7576040517f08c379a00000000000000000000000000000000000000000000000000000000081526004016128de906140d7565b60405180910390fd5b6000821161292a576040517f08c379a000000000000000000000000000000000000000000000000000000000815260040161292190614117565b60405180910390fd5b8160038190555060019050919050565b61294261333f565b600082118015612953575060045482105b612992576040517f08c379a0000000000000000000000000000000000000000000000000000000008152600401612989906140b7565b60405180910390fd5b600560008381526020019081526020016000206040518060e00160405290816000820180546129c090614499565b80601f01602080910402602001604051908101604052809291908181526020018280546129ec90614499565b8015612a395780601f10612a0e57610100808354040283529160200191612a39565b820191906000526020600020905b815481529060010190602001808311612a1c57829003601f168201915b50505050508152602001600182018054612a5290614499565b80601f0160208091040260200160405190810160405280929190818152602001828054612a7e90614499565b8015612acb5780601f10612aa057610100808354040283529160200191612acb565b820191906000526020600020905b815481529060010190602001808311612aae57829003601f168201915b505050505081526020016002820160009054906101000a900473ffffffffffffffffffffffffffffffffffffffff1673ffffffffffffffffffffffffffffffffffffffff1673ffffffffffffffffffffffffffffffffffffffff1681526020016003820154815260200160048201548152602001600582015481526020016006820160009054906101000a900460ff166002811115612b93577f4e487b7100000000000000000000000000000000000000000000000000000000600052602160045260246000fd5b6002811115612bcb577f4e487b7100000000000000000000000000000000000000000000000000000000600052602160045260246000fd5b815250509050919050565b60008082118015612be8575060045482105b612c27576040517f08c379a0000000000000000000000000000000000000000000000000000000008152600401612c1e906140b7565b60405180910390fd5b6000600560008481526020019081526020016000206040518060e0016040529081600082018054612c5790614499565b80601f0160208091040260200160405190810160405280929190818152602001828054612c8390614499565b8015612cd05780601f10612ca557610100808354040283529160200191612cd0565b820191906000526020600020905b815481529060010190602001808311612cb357829003601f168201915b50505050508152602001600182018054612ce990614499565b80601f0160208091040260200160405190810160405280929190818152602001828054612d1590614499565b8015612d625780601f10612d3757610100808354040283529160200191612d62565b820191906000526020600020905b815481529060010190602001808311612d4557829003601f168201915b505050505081526020016002820160009054906101000a900473ffffffffffffffffffffffffffffffffffffffff1673ffffffffffffffffffffffffffffffffffffffff1673ffffffffffffffffffffffffffffffffffffffff1681526020016003820154815260200160048201548152602001600582015481526020016006820160009054906101000a900460ff166002811115612e2a577f4e487b7100000000000000000000000000000000000000000000000000000000600052602160045260246000fd5b6002811115612e62577f4e487b7100000000000000000000000000000000000000000000000000000000600052602160045260246000fd5b8152505090508060600151915050919050565b6000612e7f613078565b73ffffffffffffffffffffffffffffffffffffffff16612e9d6127af565b73ffffffffffffffffffffffffffffffffffffffff1614612ef3576040517f08c379a0000000000000000000000000000000000000000000000000000000008152600401612eea906140d7565b60405180910390fd5b60008211612f36576040517f08c379a0000000000000000000000000000000000000000000000000000000008152600401612f2d90614037565b60405180910390fd5b8160028190555060019050919050565b600160009054906101000a900473ffffffffffffffffffffffffffffffffffffffff1681565b612f74613078565b73ffffffffffffffffffffffffffffffffffffffff16612f926127af565b73ffffffffffffffffffffffffffffffffffffffff1614612fe8576040517f08c379a0000000000000000000000000000000000000000000000000000000008152600401612fdf906140d7565b60405180910390fd5b600073ffffffffffffffffffffffffffffffffffffffff168173ffffffffffffffffffffffffffffffffffffffff161415613058576040517f08c379a000000000000000000000000000000000000000000000000000000000815260040161304f90613fd7565b60405180910390fd5b61306181613114565b50565b6000600354905090565b6000600254905090565b600033905090565b60006130c283836040518060400160405280601e81526020017f536166654d6174683a207375627472616374696f6e206f766572666c6f7700008152506131d8565b905092915050565b600061310c83836040518060400160405280601a81526020017f536166654d6174683a206469766973696f6e206279207a65726f00000000000081525061323c565b905092915050565b60008060009054906101000a900473ffffffffffffffffffffffffffffffffffffffff169050816000806101000a81548173ffffffffffffffffffffffffffffffffffffffff021916908373ffffffffffffffffffffffffffffffffffffffff1602179055508173ffffffffffffffffffffffffffffffffffffffff168173ffffffffffffffffffffffffffffffffffffffff167f8be0079c531659141344cd1fd0a4f28419497f9722a3daafe3b4186f6b6457e060405160405180910390a35050565b6000838311158290613220576040517f08c379a00000000000000000000000000000000000000000000000000000000081526004016132179190613fb5565b60405180910390fd5b506000838561322f919061436d565b9050809150509392505050565b60008083118290613283576040517f08c379a000000000000000000000000000000000000000000000000000000000815260040161327a9190613fb5565b60405180910390fd5b5060008385613292919061433c565b9050809150509392505050565b8280546132ab90614499565b90600052602060002090601f0160209004810192826132cd5760008555613314565b82601f106132e657805160ff1916838001178555613314565b82800160010185558215613314579182015b828111156133135782518255916020019190600101906132f8565b5b50905061332191906133ca565b5090565b604051806040016040528060008152602001600081525090565b6040518060e001604052806060815260200160608152602001600073ffffffffffffffffffffffffffffffffffffffff168152602001600081526020016000815260200160008152602001600060028111156133c4577f4e487b7100000000000000000000000000000000000000000000000000000000600052602160045260246000fd5b81525090565b5b808211156133e35760008160009055506001016133cb565b5090565b60006133fa6133f584614289565b614258565b90508281526020810184848401111561341257600080fd5b61341d848285614457565b509392505050565b600081359050613434816145ef565b92915050565b600082601f83011261344b57600080fd5b813561345b8482602086016133e7565b91505092915050565b60008135905061347381614606565b92915050565b60008151905061348881614606565b92915050565b6000602082840312156134a057600080fd5b60006134ae84828501613425565b91505092915050565b600080604083850312156134ca57600080fd5b60006134d885828601613425565b92505060206134e985828601613464565b9150509250929050565b6000806000806080858703121561350957600080fd5b600085013567ffffffffffffffff81111561352357600080fd5b61352f8782880161343a565b945050602085013567ffffffffffffffff81111561354c57600080fd5b6135588782880161343a565b935050604061356987828801613464565b925050606061357a87828801613464565b91505092959194509250565b60006020828403121561359857600080fd5b60006135a684828501613464565b91505092915050565b6000602082840312156135c157600080fd5b60006135cf84828501613479565b91505092915050565b600080604083850312156135eb57600080fd5b60006135f985828601613464565b925050602061360a85828601613464565b9150509250929050565b61361d816143a1565b82525050565b61362c816143a1565b82525050565b61363b816143b3565b82525050565b61364a8161440f565b82525050565b61365981614433565b82525050565b61366881614433565b82525050565b61367781614445565b82525050565b6000613688826142b9565b61369281856142c4565b93506136a2818560208601614466565b6136ab816145b6565b840191505092915050565b60006136c1826142b9565b6136cb81856142d5565b93506136db818560208601614466565b6136e4816145b6565b840191505092915050565b60006136fc6026836142d5565b91507f4f776e61626c653a206e6577206f776e657220697320746865207a65726f206160008301527f64647265737300000000000000000000000000000000000000000000000000006020830152604082019050919050565b6000613762603f836142d5565b91507f5768616c654e6574776f726b476f7665726e616e63653a20596f75206861766560008301527f20616c726561647920766f746564206f6e20746869732070726f706f73616c006020830152604082019050919050565b60006137c86041836142d5565b91507f5768616c654e6574776f726b476f7665726e616e63653a20537461727420746960008301527f6d65206f662070726f706f73616c206d75737420626520696e2066757475726560208301527f2e000000000000000000000000000000000000000000000000000000000000006040830152606082019050919050565b6000613854604c836142d5565b91507f5768616c654e6574776f726b476f7665726e616e63653a204d696e696d756d2060008301527f746f6b656e7320666f7220766f74696e67206d7573742062652067726561746560208301527f72207468656e207a65726f2e00000000000000000000000000000000000000006040830152606082019050919050565b60006138e06048836142d5565b91507f5768616c654e6574776f726b476f7665726e616e63653a20566f74657320636160008301527f6e20626520636173746564206f6e6c79206f6e207468652076616c696420707260208301527f6f706f73616c732e0000000000000000000000000000000000000000000000006040830152606082019050919050565b600061396c604f836142d5565b91507f5768616c654e6574776f726b476f7665726e616e63653a2050726f706f73616c60008301527f2063616e20626520666f72666569746564206f6e6c792062792074686520707260208301527f6f706f73616c2063726561746f722e00000000000000000000000000000000006040830152606082019050919050565b60006139f8603a836142d5565b91507f5768616c654e6574776f726b476f7665726e616e63653a2050726f706f73616c60008301527f20686173206e6f74207061737365642074686520766f74696e670000000000006020830152604082019050919050565b6000613a5e602b836142d5565b91507f5768616c654e6574776f726b476f7665726e616e63653a20496e76616c69642060008301527f70726f706f73616c2049640000000000000000000000000000000000000000006020830152604082019050919050565b6000613ac46020836142d5565b91507f4f776e61626c653a2063616c6c6572206973206e6f7420746865206f776e65726000830152602082019050919050565b6000613b046043836142d5565b91507f5768616c654e6574776f726b476f7665726e616e63653a20496e73756666696360008301527f69656e7420746f6b656e7320666f72206372656174696e6720612070726f706f60208301527f73616c00000000000000000000000000000000000000000000000000000000006040830152606082019050919050565b6000613b906058836142d5565b91507f5768616c654e6574776f726b476f7665726e616e63653a204d696e696d756d2060008301527f746f6b656e7320666f72206372656174696e672070726f706f73616c73206d7560208301527f73742062652067726561746572207468656e207a65726f2e00000000000000006040830152606082019050919050565b6000613c1c6046836142d5565b91507f5768616c654e6574776f726b476f7665726e616e63653a20456e642074696d6560008301527f206f662070726f706f73616c206d75737420626520616674657220737461727460208301527f2074696d652e00000000000000000000000000000000000000000000000000006040830152606082019050919050565b6000613ca8603c836142d5565b91507f5768616c654e6574776f726b476f7665726e616e63653a20566f74696e67206960008301527f73206e6f7420616374697665206f6e207468652070726f706f73616c000000006020830152604082019050919050565b6000613d0e6036836142d5565b91507f5768616c654e6574776f726b476f7665726e616e63653a20496e73756666696360008301527f69656e7420746f6b656e7320666f7220766f74696e67000000000000000000006020830152604082019050919050565b6000613d746036836142d5565b91507f5768616c654e6574776f726b476f7665726e616e63653a2050726f706f73616c60008301527f205469746c652063616e6e6f7420626520656d707479000000000000000000006020830152604082019050919050565b6000613dda6056836142d5565b91507f5768616c654e6574776f726b476f7665726e616e63653a20566f74696e67206f60008301527f6e207468652070726f706f73616c20686173207374617274656420616e64206960208301527f742063616e206e6f7420626520666f72666569746564000000000000000000006040830152606082019050919050565b600060e0830160008301518482036000860152613e76828261367d565b91505060208301518482036020860152613e90828261367d565b9150506040830151613ea56040860182613614565b506060830151613eb86060860182613f2b565b506080830151613ecb6080860182613f2b565b5060a0830151613ede60a0860182613f2b565b5060c0830151613ef160c0860182613650565b508091505092915050565b604082016000820151613f126000850182613f2b565b506020820151613f256020850182613f2b565b50505050565b613f3481614405565b82525050565b613f4381614405565b82525050565b6000602082019050613f5e6000830184613623565b92915050565b6000602082019050613f796000830184613632565b92915050565b6000602082019050613f946000830184613641565b92915050565b6000602082019050613faf600083018461365f565b92915050565b60006020820190508181036000830152613fcf81846136b6565b905092915050565b60006020820190508181036000830152613ff0816136ef565b9050919050565b6000602082019050818103600083015261401081613755565b9050919050565b60006020820190508181036000830152614030816137bb565b9050919050565b6000602082019050818103600083015261405081613847565b9050919050565b60006020820190508181036000830152614070816138d3565b9050919050565b600060208201905081810360008301526140908161395f565b9050919050565b600060208201905081810360008301526140b0816139eb565b9050919050565b600060208201905081810360008301526140d081613a51565b9050919050565b600060208201905081810360008301526140f081613ab7565b9050919050565b6000602082019050818103600083015261411081613af7565b9050919050565b6000602082019050818103600083015261413081613b83565b9050919050565b6000602082019050818103600083015261415081613c0f565b9050919050565b6000602082019050818103600083015261417081613c9b565b9050919050565b6000602082019050818103600083015261419081613d01565b9050919050565b600060208201905081810360008301526141b081613d67565b9050919050565b600060208201905081810360008301526141d081613dcd565b9050919050565b600060208201905081810360008301526141f18184613e59565b905092915050565b600060408201905061420e6000830184613efc565b92915050565b60006020820190506142296000830184613f3a565b92915050565b60006040820190506142446000830185613f3a565b614251602083018461366e565b9392505050565b6000604051905081810181811067ffffffffffffffff8211171561427f5761427e614587565b5b8060405250919050565b600067ffffffffffffffff8211156142a4576142a3614587565b5b601f19601f8301169050602081019050919050565b600081519050919050565b600082825260208201905092915050565b600082825260208201905092915050565b60006142f182614405565b91506142fc83614405565b9250827fffffffffffffffffffffffffffffffffffffffffffffffffffffffffffffffff03821115614331576143306144cb565b5b828201905092915050565b600061434782614405565b915061435283614405565b925082614362576143616144fa565b5b828204905092915050565b600061437882614405565b915061438383614405565b925082821015614396576143956144cb565b5b828203905092915050565b60006143ac826143e5565b9050919050565b60008115159050919050565b60008190506143cd826145c7565b919050565b60008190506143e0826145db565b919050565b600073ffffffffffffffffffffffffffffffffffffffff82169050919050565b6000819050919050565b600061441a82614421565b9050919050565b600061442c826143e5565b9050919050565b600061443e826143bf565b9050919050565b6000614450826143d2565b9050919050565b82818337600083830152505050565b60005b83811015614484578082015181840152602081019050614469565b83811115614493576000848401525b50505050565b600060028204905060018216806144b157607f821691505b602082108114156144c5576144c4614558565b5b50919050565b7f4e487b7100000000000000000000000000000000000000000000000000000000600052601160045260246000fd5b7f4e487b7100000000000000000000000000000000000000000000000000000000600052601260045260246000fd5b7f4e487b7100000000000000000000000000000000000000000000000000000000600052602160045260246000fd5b7f4e487b7100000000000000000000000000000000000000000000000000000000600052602260045260246000fd5b7f4e487b7100000000000000000000000000000000000000000000000000000000600052604160045260246000fd5b6000601f19601f8301169050919050565b600381106145d8576145d7614529565b5b50565b600281106145ec576145eb614529565b5b50565b6145f8816143a1565b811461460357600080fd5b50565b61460f81614405565b811461461a57600080fd5b5056fea26469706673582212202cc0f305c709e8c0853262ac89dc70bc57e4e0c5058ff842fba8add606d48ebf64736f6c63430008000033",
  "immutableReferences": {},
  "source": "// SPDX-License-Identifier: MIT\r\npragma solidity ^0.8.0;\r\n\r\nlibrary SafeMath {\r\n    function add(uint256 a, uint256 b) internal pure returns (uint256) {\r\n        uint256 c = a + b;\r\n        require(c >= a, \"SafeMath: addition overflow\");\r\n\r\n        return c;\r\n    }\r\n\r\n    function sub(uint256 a, uint256 b) internal pure returns (uint256) {\r\n        return sub(a, b, \"SafeMath: subtraction overflow\");\r\n    }\r\n\r\n    function sub(\r\n        uint256 a,\r\n        uint256 b,\r\n        string memory errorMessage\r\n    ) internal pure returns (uint256) {\r\n        require(b <= a, errorMessage);\r\n        uint256 c = a - b;\r\n\r\n        return c;\r\n    }\r\n\r\n    function mul(uint256 a, uint256 b) internal pure returns (uint256) {\r\n        // Gas optimization: this is cheaper than requiring 'a' not being zero, but the\r\n        // benefit is lost if 'b' is also tested.\r\n        // See: https://github.com/OpenZeppelin/openzeppelin-contracts/pull/522\r\n        if (a == 0) {\r\n            return 0;\r\n        }\r\n\r\n        uint256 c = a * b;\r\n        require(c / a == b, \"SafeMath: multiplication overflow\");\r\n\r\n        return c;\r\n    }\r\n\r\n    function div(uint256 a, uint256 b) internal pure returns (uint256) {\r\n        return div(a, b, \"SafeMath: division by zero\");\r\n    }\r\n\r\n    function div(\r\n        uint256 a,\r\n        uint256 b,\r\n        string memory errorMessage\r\n    ) internal pure returns (uint256) {\r\n        require(b > 0, errorMessage);\r\n        uint256 c = a / b;\r\n        // assert(a == b * c + a % b); // There is no case in which this doesn't hold\r\n\r\n        return c;\r\n    }\r\n\r\n    function mod(uint256 a, uint256 b) internal pure returns (uint256) {\r\n        return mod(a, b, \"SafeMath: modulo by zero\");\r\n    }\r\n\r\n    function mod(\r\n        uint256 a,\r\n        uint256 b,\r\n        string memory errorMessage\r\n    ) internal pure returns (uint256) {\r\n        require(b != 0, errorMessage);\r\n        return a % b;\r\n    }\r\n}\r\n\r\ninterface IERC20 {\r\n    /**\r\n     * @dev Returns the amount of tokens in existence.\r\n     */\r\n    function totalSupply() external view returns (uint256);\r\n\r\n    /**\r\n     * @dev Returns the amount of tokens owned by `account`.\r\n     */\r\n    function balanceOf(address account) external view returns (uint256);\r\n\r\n    /**\r\n     * @dev Moves `amount` tokens from the caller's account to `recipient`.\r\n     *\r\n     * Returns a boolean value indicating whether the operation succeeded.\r\n     *\r\n     * Emits a {Transfer} event.\r\n     */\r\n    function transfer(address recipient, uint256 amount)\r\n        external\r\n        returns (bool);\r\n\r\n    /**\r\n     * @dev Returns the remaining number of tokens that `spender` will be\r\n     * allowed to spend on behalf of `owner` through {transferFrom}. This is\r\n     * zero by default.\r\n     *\r\n     * This value changes when {approve} or {transferFrom} are called.\r\n     */\r\n    function allowance(address owner, address spender)\r\n        external\r\n        view\r\n        returns (uint256);\r\n\r\n    /**\r\n     * @dev Sets `amount` as the allowance of `spender` over the caller's tokens.\r\n     *\r\n     * Returns a boolean value indicating whether the operation succeeded.\r\n     *\r\n     * IMPORTANT: Beware that changing an allowance with this method brings the risk\r\n     * that someone may use both the old and the new allowance by unfortunate\r\n     * transaction ordering. One possible solution to mitigate this race\r\n     * condition is to first reduce the spender's allowance to 0 and set the\r\n     * desired value afterwards:\r\n     * https://github.com/ethereum/EIPs/issues/20#issuecomment-263524729\r\n     *\r\n     * Emits an {Approval} event.\r\n     */\r\n    function approve(address spender, uint256 amount) external returns (bool);\r\n\r\n    /**\r\n     * @dev Moves `amount` tokens from `sender` to `recipient` using the\r\n     * allowance mechanism. `amount` is then deducted from the caller's\r\n     * allowance.\r\n     *\r\n     * Returns a boolean value indicating whether the operation succeeded.\r\n     *\r\n     * Emits a {Transfer} event.\r\n     */\r\n    function transferFrom(\r\n        address sender,\r\n        address recipient,\r\n        uint256 amount\r\n    ) external returns (bool);\r\n\r\n    /**\r\n     * @dev Emitted when `value` tokens are moved from one account (`from`) to\r\n     * another (`to`).\r\n     *\r\n     * Note that `value` may be zero.\r\n     */\r\n    event Transfer(address indexed from, address indexed to, uint256 value);\r\n\r\n    /**\r\n     * @dev Emitted when the allowance of a `spender` for an `owner` is set by\r\n     * a call to {approve}. `value` is the new allowance.\r\n     */\r\n    event Approval(\r\n        address indexed owner,\r\n        address indexed spender,\r\n        uint256 value\r\n    );\r\n}\r\n\r\nabstract contract Context {\r\n    function _msgSender() internal view virtual returns (address) {\r\n        return msg.sender;\r\n    }\r\n\r\n    function _msgData() internal view virtual returns (bytes calldata) {\r\n        return msg.data;\r\n    }\r\n}\r\n\r\nabstract contract Ownable is Context {\r\n    address private _owner;\r\n\r\n    event OwnershipTransferred(\r\n        address indexed previousOwner,\r\n        address indexed newOwner\r\n    );\r\n\r\n    constructor() {\r\n        _setOwner(_msgSender());\r\n    }\r\n\r\n    function owner() public view virtual returns (address) {\r\n        return _owner;\r\n    }\r\n\r\n    modifier onlyOwner() {\r\n        require(owner() == _msgSender(), \"Ownable: caller is not the owner\");\r\n        _;\r\n    }\r\n\r\n    function renounceOwnership() public virtual onlyOwner {\r\n        _setOwner(address(0));\r\n    }\r\n\r\n    function transferOwnership(address newOwner) public virtual onlyOwner {\r\n        require(\r\n            newOwner != address(0),\r\n            \"Ownable: new owner is the zero address\"\r\n        );\r\n        _setOwner(newOwner);\r\n    }\r\n\r\n    function _setOwner(address newOwner) private {\r\n        address oldOwner = _owner;\r\n        _owner = newOwner;\r\n        emit OwnershipTransferred(oldOwner, newOwner);\r\n    }\r\n}\r\n\r\ncontract WhaleNetworkGovernance is Context, Ownable {\r\n    using SafeMath for uint256;\r\n\r\n    enum ProposalStatus {\r\n        VALID,\r\n        FORFEITED,\r\n        EXECUTED\r\n    }\r\n\r\n    enum Vote {\r\n        AGAINST,\r\n        FOR\r\n    }\r\n\r\n    struct VoteStatus {\r\n        uint256 against;\r\n        uint256 support;\r\n    }\r\n\r\n    struct Proposal {\r\n        string title;\r\n        string details;\r\n        address creator;\r\n        uint256 startBlock;\r\n        uint256 endBlock;\r\n        uint256 id;\r\n        ProposalStatus status;\r\n    }\r\n\r\n    IERC20 public _token;\r\n\r\n    uint256 private _minTokenForVoting;\r\n    uint256 private _minTokenForProposal;\r\n    uint256 public _nextProposalId = 1;\r\n\r\n    mapping(uint256 => Proposal) _proposals;\r\n    mapping(uint256 => VoteStatus) _votes;\r\n    mapping(uint256 => mapping(address => bool)) _proposalVotingStatus;\r\n\r\n    event ProposalCreated(address indexed creatorAddress, string title);\r\n    event VoteCast(address indexed voter, uint256 weight, Vote status);\r\n    event ProposalExecuted(uint256 proposalId);\r\n    event ProposalForfeited(uint256 proposalId);\r\n\r\n    constructor(\r\n        IERC20 token,\r\n        uint256 minForVoting,\r\n        uint256 minForProposal\r\n    ) {\r\n        require(\r\n            address(token) != address(0),\r\n            \"WhaleNetworkGovernance: Token address can not be zero address\"\r\n        );\r\n        require(\r\n            minForVoting > 0,\r\n            \"WhaleNetworkGovernance: Minimum tokens for voting must be greater then zero.\"\r\n        );\r\n        require(\r\n            minForProposal > 0,\r\n            \"WhaleNetworkGovernance: Minimum tokens for creating proposals must be greater then zero.\"\r\n        );\r\n        _token = token;\r\n        _minTokenForProposal = minForProposal * 1 ether;\r\n        _minTokenForVoting = minForVoting * 1 ether;\r\n    }\r\n\r\n    function minimumTokenRequiredVoting() public view returns (uint256) {\r\n        return _minTokenForVoting;\r\n    }\r\n\r\n    function minimumTokenRequiredProposal() public view returns (uint256) {\r\n        return _minTokenForProposal;\r\n    }\r\n\r\n    function setMinimumTokenRequiredVoting(uint256 amount)\r\n        external\r\n        onlyOwner\r\n        returns (bool)\r\n    {\r\n        require(\r\n            amount > 0,\r\n            \"WhaleNetworkGovernance: Minimum tokens for voting must be greater then zero.\"\r\n        );\r\n        _minTokenForVoting = amount;\r\n        return true;\r\n    }\r\n\r\n    function setMinimumTokenRequiredProposal(uint256 amount)\r\n        external\r\n        onlyOwner\r\n        returns (bool)\r\n    {\r\n        require(\r\n            amount > 0,\r\n            \"WhaleNetworkGovernance: Minimum tokens for creating proposals must be greater then zero.\"\r\n        );\r\n        _minTokenForProposal = amount;\r\n        return true;\r\n    }\r\n\r\n    function createProposal(\r\n        string memory proposalTitle,\r\n        string memory proposalDetails,\r\n        uint256 start,\r\n        uint256 end\r\n    ) external returns (bool) {\r\n        require(\r\n            bytes(proposalTitle).length > 0,\r\n            \"WhaleNetworkGovernance: Proposal Title cannot be empty\"\r\n        );\r\n        require(\r\n            bytes(proposalDetails).length > 0,\r\n            \"WhaleNetworkGovernance: Proposal Title cannot be empty\"\r\n        );\r\n        require(\r\n            _token.balanceOf(_msgSender()) >= _minTokenForProposal,\r\n            \"WhaleNetworkGovernance: Insufficient tokens for creating a proposal\"\r\n        );\r\n\r\n        require(\r\n            start > block.number,\r\n            \"WhaleNetworkGovernance: Start time of proposal must be in future.\"\r\n        );\r\n        require(\r\n            end > start,\r\n            \"WhaleNetworkGovernance: End time of proposal must be after start time.\"\r\n        );\r\n\r\n        _proposals[_nextProposalId] = Proposal(\r\n            proposalTitle,\r\n            proposalDetails,\r\n            _msgSender(),\r\n            start,\r\n            end,\r\n            _nextProposalId,\r\n            ProposalStatus.VALID\r\n        );\r\n        _nextProposalId += 1;\r\n        emit ProposalCreated(_msgSender(), proposalTitle);\r\n        return true;\r\n    }\r\n\r\n    function getProposal(uint256 proposalId)\r\n        public\r\n        view\r\n        returns (Proposal memory)\r\n    {\r\n        require(\r\n            proposalId > 0 && proposalId < _nextProposalId,\r\n            \"WhaleNetworkGovernance: Invalid proposal Id\"\r\n        );\r\n        return _proposals[proposalId];\r\n    }\r\n\r\n    function castVote(uint256 proposalId, uint256 vote)\r\n        external\r\n        returns (bool)\r\n    {\r\n        //vote = 0 - NO\r\n        //vote = 1 - YES\r\n        require(\r\n            _token.balanceOf(_msgSender()) >= _minTokenForVoting,\r\n            \"WhaleNetworkGovernance: Insufficient tokens for voting\"\r\n        );\r\n        require(\r\n            proposalId > 0 && proposalId < _nextProposalId,\r\n            \"WhaleNetworkGovernance: Invalid proposal Id\"\r\n        );\r\n        require(\r\n            !_proposalVotingStatus[proposalId][_msgSender()],\r\n            \"WhaleNetworkGovernance: You have already voted on this proposal\"\r\n        );\r\n\r\n        VoteStatus storage proposalVote = _votes[proposalId];\r\n        Proposal memory proposal = _proposals[proposalId];\r\n\r\n        require(\r\n            block.number > proposal.startBlock &&\r\n                block.number < proposal.endBlock,\r\n            \"WhaleNetworkGovernance: Voting is not active on the proposal\"\r\n        );\r\n\r\n        require(\r\n            proposal.status == ProposalStatus.VALID,\r\n            \"WhaleNetworkGovernance: Votes can be casted only on the valid proposals.\"\r\n        );\r\n\r\n        _proposalVotingStatus[proposalId][_msgSender()] = true;\r\n        if (vote == 1) {\r\n            proposalVote.support += _token.balanceOf(_msgSender());\r\n            emit VoteCast(\r\n                _msgSender(),\r\n                _token.balanceOf(_msgSender()),\r\n                Vote.FOR\r\n            );\r\n        }\r\n        if (vote == 0) {\r\n            proposalVote.against += _token.balanceOf(_msgSender());\r\n            emit VoteCast(\r\n                _msgSender(),\r\n                _token.balanceOf(_msgSender()),\r\n                Vote.AGAINST\r\n            );\r\n        }\r\n        return true;\r\n    }\r\n\r\n    // whether user has voted or not\r\n    function hasVoted(address voter, uint256 proposalId)\r\n        public\r\n        view\r\n        returns (bool)\r\n    {\r\n        require(\r\n            proposalId > 0 && proposalId < _nextProposalId,\r\n            \"WhaleNetworkGovernance: Invalid proposal Id\"\r\n        );\r\n        return _proposalVotingStatus[proposalId][voter];\r\n    }\r\n\r\n    function getResult(uint256 proposalId)\r\n        public\r\n        view\r\n        returns (VoteStatus memory)\r\n    {\r\n        require(\r\n            proposalId > 0 && proposalId < _nextProposalId,\r\n            \"WhaleNetworkGovernance: Invalid proposal Id\"\r\n        );\r\n        return _votes[proposalId];\r\n    }\r\n\r\n    function isVotingActive(uint256 proposalId) public view returns (bool) {\r\n        require(\r\n            proposalId > 0 && proposalId < _nextProposalId,\r\n            \"WhaleNetworkGovernance: Invalid proposal Id\"\r\n        );\r\n        Proposal memory proposal = _proposals[proposalId];\r\n        if (\r\n            block.number > proposal.startBlock &&\r\n            block.number < proposal.endBlock\r\n        ) {\r\n            return true;\r\n        } else {\r\n            return false;\r\n        }\r\n    }\r\n\r\n    function isProposalPassed(uint256 proposalId) public view returns (bool) {\r\n        require(\r\n            proposalId > 0 && proposalId < _nextProposalId,\r\n            \"WhaleNetworkGovernance: Invalid proposal Id\"\r\n        );\r\n        VoteStatus memory voteStatus = getResult(proposalId);\r\n        uint256 circulatingTokenSupply = _token.totalSupply().sub(\r\n            _token.balanceOf(address(0))\r\n        );\r\n        if (voteStatus.support > circulatingTokenSupply.div(2)) {\r\n            return true;\r\n        } else {\r\n            return false;\r\n        }\r\n    }\r\n\r\n    function executeProposal(uint256 proposalId)\r\n        external\r\n        onlyOwner\r\n        returns (bool)\r\n    {\r\n        require(\r\n            proposalId > 0 && proposalId < _nextProposalId,\r\n            \"WhaleNetworkGovernance: Invalid proposal Id\"\r\n        );\r\n\r\n        require(\r\n            isProposalPassed(proposalId),\r\n            \"WhaleNetworkGovernance: Proposal has not passed the voting\"\r\n        );\r\n        Proposal memory proposal = _proposals[proposalId];\r\n        proposal.status = ProposalStatus.EXECUTED;\r\n        _proposals[proposalId] = proposal;\r\n        emit ProposalExecuted(proposalId);\r\n        return true;\r\n    }\r\n\r\n    function forfeitProposal(uint256 proposalId) public returns (bool) {\r\n        require(\r\n            proposalId > 0 && proposalId < _nextProposalId,\r\n            \"WhaleNetworkGovernance: Invalid proposal Id\"\r\n        );\r\n        Proposal memory proposal = _proposals[proposalId];\r\n        require(\r\n            block.number < proposal.startBlock,\r\n            \"WhaleNetworkGovernance: Voting on the proposal has started and it can not be forfeited\"\r\n        );\r\n        require(\r\n            proposal.creator == _msgSender(),\r\n            \"WhaleNetworkGovernance: Proposal can be forfeited only by the proposal creator.\"\r\n        );\r\n        proposal.status = ProposalStatus.FORFEITED;\r\n        _proposals[proposalId] = proposal;\r\n        emit ProposalForfeited(proposalId);\r\n        return true;\r\n    }\r\n\r\n    function proposalStartBlock(uint256 proposalId)\r\n        public\r\n        view\r\n        returns (uint256)\r\n    {\r\n        require(\r\n            proposalId > 0 && proposalId < _nextProposalId,\r\n            \"WhaleNetworkGovernance: Invalid proposal Id\"\r\n        );\r\n        Proposal memory proposal = _proposals[proposalId];\r\n        return proposal.startBlock;\r\n    }\r\n\r\n    function proposalEndBlock(uint256 proposalId)\r\n        public\r\n        view\r\n        returns (uint256)\r\n    {\r\n        require(\r\n            proposalId > 0 && proposalId < _nextProposalId,\r\n            \"WhaleNetworkGovernance: Invalid proposal Id\"\r\n        );\r\n        Proposal memory proposal = _proposals[proposalId];\r\n        return proposal.endBlock;\r\n    }\r\n\r\n    function getProposalStatus(uint256 proposalId)\r\n        public\r\n        view\r\n        returns (ProposalStatus)\r\n    {\r\n        require(\r\n            proposalId > 0 && proposalId < _nextProposalId,\r\n            \"WhaleNetworkGovernance: Invalid proposal Id\"\r\n        );\r\n        Proposal memory proposal = _proposals[proposalId];\r\n        return proposal.status;\r\n    }\r\n}\r\n",
  "sourcePath": "C:\\git\\freelance\\whale-network\\contracts\\WhaleNetworkGovernance.sol",
  "compiler": {
    "name": "solc",
    "version": "0.8.0+commit.c7dfd78e.Emscripten.clang"
  },
  "schemaVersion": "3.4.3",
  "updatedAt": "2021-10-17T15:09:19.577Z",
  "networkType": "ethereum",
  "devdoc": {
    "kind": "dev",
    "methods": {},
    "version": 1
  },
  "userdoc": {
    "kind": "user",
    "methods": {},
    "version": 1
  }
}